:020000040800F2
:1000000000000220BDB0000801A0000803A0000805
:1000100005A0000807A0000809A0000800000000D3
:10002000000000000000000000000000E173000874
:100030000BA000080000000081740008E5740008AF
:100040000DB100080DB100080DB100080DB1000898
:100050000DB100080DB100080DA000080DB1000899
:100060000DB1000817A0000821A000080DB100087C
:100070000DB100080DB100080DB100080DB1000868
:100080000DB100080DB100080DB100080DB1000858
:100090002DA000083DA000080DB100084DA00008EB
:1000A0000DB100080DB100080DB100080DB1000838
:1000B0000DB100080DB100080DB100080DB1000828
:1000C0000DB100080DB100080DB100080DB1000818
:1000D0000DB1000859A000080DB10008F9F10008A1
:1000E0000DB100080DB100080DB100080DB10008F8
:1000F0000DB100080DB100080DB10008CDC9000810
:100100000DB100080DB100080DB100080DB10008D7
:100110000DB100080DB1000869A000080DB100087C
:100120000DB1000879A00008E9B600080DB100087B
:100130000DB100080DB100080DB100080DB10008A7
:1001400089A000080DB100080DB1000899A00008B1
:10015000A9A00008B9A00008C9A000080DB10008B6
:100160000DB100080DB100080DB100080DB1000877
:100170000DB100080DB100080DB10008000000002D
:080180000DB100080DB10008EB
:1001C00081F0004102E000BF83F0004330B54FEA08
:1001D00041044FEA430594EA050F08BF90EA020F75
:1001E0001FBF54EA000C55EA020C7FEA645C7FEA08
:1001F000655C00F0E2804FEA5454D4EB5555B8BF2B
:100200006D420CDD2C4480EA020281EA030382EA9B
:10021000000083EA010180EA020281EA0303362D2D
:1002200088BF30BD11F0004F4FEA01314FF4801C00
:100230004CEA113102D0404261EB410113F0004F12
:100240004FEA03334CEA133302D0524263EB4303C9
:1002500094EA050F00F0A780A4F10104D5F1200E67
:100260000DDB02FA0EFC22FA05F2801841F10001C2
:1002700003FA0EF2801843FA05F359410EE0A5F196
:1002800020050EF1200E012A03FA0EFC28BF4CF0C7
:10029000020C43FA05F3C01851EBE37101F000457D
:1002A00007D54FF0000EDCF1000C7EEB00006EEB8A
:1002B0000101B1F5801F1BD3B1F5001F0CD3490814
:1002C0005FEA30004FEA3C0C04F101044FEA44526B
:1002D00012F5800F80F09A80BCF1004F08BF5FEAF2
:1002E000500C50F1000041EB045141EA050130BDD2
:1002F0005FEA4C0C404141EB0101013C28BFB1F5E4
:10030000801FE9D291F0000F04BF01460020B1FA2E
:1003100081F308BF2033A3F10B03B3F120020CDA01
:100320000C3208DD02F1140CC2F10C0201FA0CF0DF
:1003300021FA02F10CE002F11402D8BFC2F1200C44
:1003400001FA02F120FA0CFCDCBF41EA0C019040FA
:10035000E41AA2BF01EB0451294330BD6FEA040443
:100360001F3C1CDA0C340EDC04F11404C4F120022E
:1003700020FA04F001FA02F340EA030021FA04F340
:1003800045EA030130BDC4F10C04C4F1200220FA97
:1003900002F001FA04F340EA0300294630BD21FAD5
:1003A00004F0294630BD94F0000F83F4801306BF9B
:1003B00081F480110134013D4EE77FEA645C18BF8F
:1003C0007FEA655C29D094EA050F08BF90EA020F26
:1003D00005D054EA000C04BF1946104630BD91EA1E
:1003E000030F1EBF0021002030BD5FEA545C05D121
:1003F0004000494128BF41F0004130BD14F5800460
:100400003CBF01F5801130BD01F0004545F0FE41D3
:1004100041F470014FF0000030BD7FEA645C1ABF08
:10042000194610467FEA655C1CBF0B46024650EA3F
:10043000013406BF52EA033591EA030F41F400216B
:1004400030BD00BF90F0000F04BF0021704730B5F1
:100450004FF4806404F132044FF000054FF00001C6
:1004600050E700BF90F0000F04BF0021704730B587
:100470004FF4806404F1320410F0004548BF40425C
:100480004FF000013EE700BF42004FEAE2014FEAB1
:1004900031014FEA02701FBF12F07F4393F07F4F8C
:1004A00081F06051704732F07F4208BF704793F08F
:1004B0007F4F04BF41F40021704730B54FF46074A2
:1004C00001F0004521F000411CE700BF50EA0102A5
:1004D00008BF704730B54FF000050AE050EA01024E
:1004E00008BF704730B511F0004502D5404261EBBE
:1004F00041014FF4806404F132045FEA915C3FF4FF
:10050000D8AE4FF003025FEADC0C18BF03325FEA9B
:10051000DC0C18BF033202EBDC02C2F1200300FA4C
:1005200003FC20FA02F001FA03FE40EA0E0021FA71
:1005300002F11444BDE600BF70B54FF0FF0C4CF45F
:10054000E06C1CEA11541DBF1CEA135594EA0C0F11
:1005500095EA0C0F00F0DEF82C4481EA030621EA4C
:100560004C5123EA4C5350EA013518BF52EA033587
:1005700041F4801143F4801338D0A0FB02CE4FF039
:100580000005E1FB02E506F00042E0FB03E54FF069
:100590000006E1FB03569CF0000F18BF4EF0010E61
:1005A000A4F1FF04B6F5007F64F5407404D25FEA5D
:1005B0004E0E6D4146EB060642EAC62141EA555110
:1005C0004FEAC52040EA5E504FEACE2EB4F1FD0C52
:1005D00088BFBCF5E06F1ED8BEF1004F08BF5FEAD0
:1005E000500E50F1000041EB045170BD06F0004682
:1005F00046EA010140EA020081EA0301B4EB5C042F
:10060000C2BFD4EB0C0541EA045170BD41F4801126
:100610004FF0000E013C00F3AB8014F1360FDEBF4B
:10062000002001F0004170BDC4F10004203C35DA27
:100630000C341BDC04F11404C4F1200500FA05F3AA
:1006400020FA04F001FA05F240EA020001F000424B
:1006500021F0004110EBD37021FA04F642EB0601C1
:100660005EEA430E08BF20EAD37070BDC4F10C04EB
:10067000C4F1200500FA04F320FA05F001FA04F2AF
:1006800040EA020001F0004110EBD37041F100019B
:100690005EEA430E08BF20EAD37070BDC4F12005A6
:1006A00000FA05F24EEA020E20FA04F301FA05F20E
:1006B00043EA020321FA04F001F0004121FA04F2B6
:1006C00020EA020000EBD3705EEA430E08BF20EA86
:1006D000D37070BD94F0000F0FD101F000464000C0
:1006E00041EB010111F4801F08BF013CF7D041EA42
:1006F000060195F0000F18BF704703F00046520046
:1007000043EB030313F4801F08BF013DF7D043EA16
:100710000603704794EA0C0F0CEA135518BF95EACC
:100720000C0F0CD050EA410618BF52EA4306D1D153
:1007300081EA030101F000414FF0000070BD50EA72
:10074000410606BF1046194652EA430619D094EAFC
:100750000C0F02D150EA013613D195EA0C0F05D1E6
:1007600052EA03361CBF104619460AD181EA03013A
:1007700001F0004141F0FE4141F470014FF00000F2
:1007800070BD41F0FE4141F4780170BD70B54FF08D
:10079000FF0C4CF4E06C1CEA11541DBF1CEA13550D
:1007A00094EA0C0F95EA0C0F00F0A7F8A4EB0504EF
:1007B00081EA030E52EA03354FEA013100F08880E6
:1007C0004FEA03334FF0805545EA131343EA1263AF
:1007D0004FEA022245EA111545EA10654FEA002664
:1007E0000EF000419D4208BF964244F1FD0404F51D
:1007F000407402D25B084FEA3202B61A65EB030579
:100800005B084FEA32024FF480104FF4002CB6EB35
:10081000020E75EB030E22BFB61A754640EA0C00B5
:100820005B084FEA3202B6EB020E75EB030E22BFF5
:10083000B61A754640EA5C005B084FEA3202B6EB36
:10084000020E75EB030E22BFB61A754640EA9C00F5
:100850005B084FEA3202B6EB020E75EB030E22BFC5
:10086000B61A754640EADC0055EA060E18D04FEA83
:10087000051545EA16754FEA06164FEAC30343EA23
:1008800052734FEAC2025FEA1C1CC0D111F4801FF0
:100890000BD141EA00014FF000004FF0004CB6E7E9
:1008A00011F4801F04BF01430020B4F1FD0C88BF88
:1008B000BCF5E06F3FF6AFAEB5EB030C04BFB6EB93
:1008C000020C5FEA500C50F1000041EB045170BD86
:1008D0000EF0004E4EEA113114EB5C04C2BFD4EBB3
:1008E0000C0541EA045170BD41F480114FF0000E37
:1008F000013C90E645EA060E8DE60CEA135594EAB3
:100900000C0F08BF95EA0C0F3FF43BAF94EA0C0FB5
:100910000AD150EA01347FF434AF95EA0C0F7FF42A
:1009200025AF104619462CE795EA0C0F06D152EA7E
:1009300003353FF4FDAE1046194622E750EA410662
:1009400018BF52EA43067FF4C5AE50EA41047FF473
:100950000DAF52EA43057FF4EBAE12E74FF0FF3CD8
:1009600006E000BF4FF0010C02E000BF4FF0010CA9
:100970004DF804CD4FEA410C7FEA6C5C4FEA430C22
:1009800018BF7FEA6C5C1BD001B050EA410C0CBF71
:1009900052EA430C91EA030F02BF90EA020F0020D3
:1009A000704710F1000F91EA030F58BF994208BF3A
:1009B00090422CBFD8176FEAE37040F001007047F7
:1009C0004FEA410C7FEA6C5C02D150EA013C07D14E
:1009D0004FEA430C7FEA6C5CD6D152EA033CD3D099
:1009E0005DF8040B704700BF8446104662468C4693
:1009F0001946634600E000BF01B5FFF7B7FF0028C6
:100A000048BF10F1000F01BD4DF808EDFFF7F4FFEE
:100A10000CBF012000205DF808FB00BF4DF808ED79
:100A2000FFF7EAFF34BF012000205DF808FB00BF9C
:100A30004DF808EDFFF7E0FF94BF012000205DF8BE
:100A400008FB00BF4DF808EDFFF7CEFF94BF012073
:100A500000205DF808FB00BF4DF808EDFFF7C4FF6C
:100A600034BF012000205DF808FB00BF4FEA4102BF
:100A7000B2F1E04324BFB3F5001CDCF1FE5C0DD9FC
:100A800001F0004C4FEAC0024CEA5070B2F1004F46
:100A900040EB830008BF20F00100704711F0804F49
:100AA00021D113F13872BCBF01F00040704741F40E
:100AB00080114FEA5252C2F11802C2F1200C10FA12
:100AC0000CF320FA02F018BF40F001004FEAC123F6
:100AD0004FEAD32303FA0CFC40EA0C0023FA02F39A
:100AE0004FEA4303CCE77FEA625307D150EA013370
:100AF0001EBF4FF0FE4040F44000704701F0004040
:100B000040F0FE4040F40000704700BF53B94AB9BE
:100B1000002908BF00281CBF4FF0FF314FF0FF3005
:100B200000F00CB8ADF1080C6DE904CE0FF0D6F969
:100B3000DDF804E0DDE9022304B07047704700BF30
:100B4000844641EA000313F003036DD1403A41D3D8
:100B500051F8043B40F8043B51F8043B40F8043B97
:100B600051F8043B40F8043B51F8043B40F8043B87
:100B700051F8043B40F8043B51F8043B40F8043B77
:100B800051F8043B40F8043B51F8043B40F8043B67
:100B900051F8043B40F8043B51F8043B40F8043B57
:100BA00051F8043B40F8043B51F8043B40F8043B47
:100BB00051F8043B40F8043B51F8043B40F8043B37
:100BC00051F8043B40F8043B51F8043B40F8043B27
:100BD000403ABDD2303211D351F8043B40F8043BC7
:100BE00051F8043B40F8043B51F8043B40F8043B07
:100BF00051F8043B40F8043B103AEDD20C3205D3D7
:100C000051F8043B40F8043B043AF9D2043208D0CE
:100C1000D2071CBF11F8013B00F8013B01D30B8840
:100C200003806046704700BF082A13D38B078DD01E
:100C300010F003038AD0C3F10403D21ADB071CBFF0
:100C400011F8013B00F8013B80D331F8023B20F85A
:100C5000023B7BE7043AD9D3013A11F8013B00F893
:100C6000013BF9D20B7803704B7843708B7883701B
:100C70006046704700000000000000000000000017
:100C800030B490F800F020F007016FF0000C10F085
:100C9000070491F820F040F048804FF000046FF016
:100CA0000700D1E9002391F840F000F1080082FA32
:100CB0004CF2A4FA8CF283FA4CF3A2FA8CF34BBBFD
:100CC000D1E9022382FA4CF200F10800A4FA8CF276
:100CD00083FA4CF3A2FA8CF3E3B9D1E9042382FA44
:100CE0004CF200F10800A4FA8CF283FA4CF3A2FA59
:100CF0008CF37BB9D1E9062301F1200182FA4CF291
:100D000000F10800A4FA8CF283FA4CF3A2FA8CF3F7
:100D1000002BC6D0002A04BF04301A4612BAB2FA19
:100D200082F200EBD20030BC7047D1E9002304F01E
:100D30000305C4F100004FEAC50514F0040F91F853
:100D400040F00CFA05F562EA05021CBF63EA0503F0
:100D500062464FF00004AAE770B4840746D04C1EE8
:100D6000002941D0D5B2034602E0611EE4B30C462F
:100D700003F8015B9907F8D1032C2ED9D5B245EAC7
:100D800005250F2C45EA054519D9264603F1100122
:100D9000103E0F2E41F8105C41F80C5C41F8085CE5
:100DA00041F8045C01F11001F2D8A4F1100121F026
:100DB0000F0104F00F041031032C0B440DD91E4613
:100DC00021460439032946F8045BFAD8211F21F093
:100DD000030104310B4404F003042CB1D2B21C44CF
:100DE00003F8012BA342FBD170BC70470C460346AD
:100DF000C2E700000348044B834202D0034B03B117
:100E00001847704714070020140700200000000056
:100E10000548064B1B1AD90F01EBA301491002D05C
:100E2000034B03B118477047140700201407002034
:100E30000000000010B5064C237843B9FFF7DAFF35
:100E4000044B13B10448AFF300800123237010BD9D
:100E50001807002000000000B818010808B5054B6D
:100E60001BB105490548AFF30080BDE80840FFF716
:100E7000CFBF00BF000000001C070020B818010809
:100E800008B50B4B1A6842F400721A601A6842F4F3
:100E900080621A601A6842F480721A60032000F0BF
:100EA000E1FD002009F05AF809F036F8002008BDED
:100EB000003C0240034A1168034B1B780B4413604B
:100EC000704700BF3407002010000020014B186855
:100ED000704700BF3407002038B50446FFF7F6FF1F
:100EE0000546B4F1FF3F02D0044B1B781C44FFF7CA
:100EF000EDFF401BA042FAD338BD00BF1000002018
:100F00004A4B5A6822F440325A605A6841680A4390
:100F10005A600268536823F4807353600268536810
:100F2000016943EA012353600268536823F0407368
:100F300053600268536881680B435360026893688A
:100F400023F40063936002689368C1680B43936065
:100F5000826A374B9A4257D00268936823F07063D5
:100F6000936002689368816A0B4393600268936898
:100F700023F04053936002689368C16A0B43936007
:100F80000268936823F00203936002689368017E0D
:100F900043EA4103936090F82030002B3FD0026871
:100FA000536843F4006353600268536823F460435A
:100FB000536001684B68426A013A43EA42334B602E
:100FC0000268D36A23F47003D3620168CB6AC269F2
:100FD000013A43EA0253CB620268936823F4007338
:100FE00093600268936890F8301043EA412393605D
:100FF0000268936823F48063936002689368416990
:1010000043EA8123936070470268936823F070631A
:1010100093600268936823F040539360B0E70268DE
:10102000536823F400635360CAE700BF0023014004
:101030000100000F38B310B50446036C43B1236CB4
:1010400013F0100F0BD00120002384F83C3010BDAA
:1010500008F0DCF80023636484F83C30EFE7236C8D
:1010600023F4885323F0020343F002032364204651
:10107000FFF746FF00206064236C23F0030343F076
:1010800001032364E0E701207047000030B482B020
:101090000022019290F83C20012A00F0B68003461D
:1010A000012280F83C200A68092A40D90468E068D7
:1010B00092B202EB42021E3A4FF0070C0CFA02F217
:1010C00020EA0202E2601C68E0680A8802EB420241
:1010D0001E3A8D6805FA02F20243E2604A68062A67
:1010E0003CD81C68606B02EB8202053A4FF01F0C83
:1010F0000CFA02F220EA020262631C68606B4A6822
:1011000002EB8202053AB1F800C00CFA02F2024387
:10111000626318683E4A904250D018683C4A904238
:1011200055D0002083F83C0002B030BC7047046802
:10113000206992B202EB42024FF0070C0CFA02F265
:1011400020EA020222611C6820690A8802EB42023E
:101150008D6805FA02F202432261BFE70C2A16D815
:101160001D68286B02EB8202233A1F2404FA02F264
:1011700020EA02022A631D68286B4A6802EB820299
:10118000233A0C8804FA02F202432A63C1E71D687D
:10119000E86A02EB8202413A1F2404FA02F220EAD2
:1011A0000202EA621D68E86A4A6802EB8202413A7A
:1011B0000C8804FA02F20243EA62AAE70A68122AD9
:1011C000ABD11448426842F480024260A5E70A6845
:1011D000103A012AA5D80F48426842F40002426042
:1011E0000A68102A9DD10C4A12680C49A1FB021210
:1011F000920C02EB82025200019202E0019A013A43
:101200000192019A002AF9D18BE702208CE700BFF6
:101210000020014000230140A400002083DE1B4386
:10122000002800F0A18038B5044690F82030D3B1F2
:101230002268136843F001031360FFF747FE054679
:1012400023685A6812F0010F10D1FFF73FFE401BD0
:101250000A28F5D9636A43F400336362052384F8EE
:101260002030012038BD08F059F8E1E71A6822F073
:1012700002021A60FFF72AFE054623685A6812F038
:10128000020F0DD0FFF722FE401B0A28F5D9636A32
:1012900043F400336362052384F820300120E1E742
:1012A000227E012A3DD01A6822F080021A60637EF5
:1012B000012B3BD02268136823F040031360A37E08
:1012C000012B39D02268136823F020031360E37EDA
:1012D000012B37D02268136843F010031360237F7B
:1012E000012B35D02268136823F008031360637F55
:1012F000012B33D02268136823F004031360A36822
:10130000E268134322691343626913436268013A36
:1013100021681343CB6100206062012384F82030F0
:10132000A0E71A6842F080021A60C0E722681368DA
:1013300043F040031360C2E72268136843F02003C0
:101340001360C4E72268136823F010031360C6E734
:101350002268136843F008031360C8E72268136823
:1013600043F004031360CAE70120704790F820306F
:10137000013BDBB2012B05D9436A43F4802343626E
:101380000120704730B5464BD3F8002242F00102ED
:10139000C3F80022D3F8002222F47C52C3F80022C2
:1013A000D3F80022486A42EA0022C3F800224A69C0
:1013B00002F01F02012000FA02F2D3F81C026FEAC9
:1013C000020C20EA0200C3F81C02CB69C3B9344BFB
:1013D000D3F80C020CEA0000C3F80C028C884869B0
:1013E000CD6844EA0544483043F830408C680888AA
:1013F00040EA04404C6904F1480E03EBCE03586008
:10140000CB69012B1ED08B69002B33D12448D0F837
:1014100004320CEA0303C0F804320B698BBB20488A
:10142000D0F814320CEA0303C0F814320B6A012B13
:101430002ED01B4AD2F8003223F00103C2F800324A
:10144000002030BD164BD3F80C021043C3F80C0239
:101450008C8848690D6844EA0544483043F83040B8
:1014600088894C698D6840EA0540483403EBC40321
:101470005860C8E70A48D0F804321343C0F8043271
:10148000CBE70748D0F814321343C0F81432CDE745
:101490000349D1F81C321343C1F81C32C9E700BF1D
:1014A0000064004070B5044690F82050EDB2012D64
:1014B00006D0436A43F4002343620125284670BDE9
:1014C000022380F820300268136823F001031360C0
:1014D000FFF7FCFC064623685B6813F0010F0CD095
:1014E000FFF7F4FC831B0A2BF5D9636A43F400333E
:1014F0006362052384F82030E0E700256562DDE7BC
:1015000030B590F820C00468A4680CF1FF3C5FFA85
:101510008CFCBCF1010F62D814F0E05F59D0C4F329
:10152000016C012404FA0CF41C608B68002B3DD183
:101530000D68CB68046843EA45550CF118031B019C
:10154000E55003680C690CF1180E03EB0E135C6098
:101550000B7D012B35D0D17993791B0443EA0163CC
:10156000517943EA012314790168234301EB0C11FB
:10157000C1F88C31D17893781B0443EA0163517828
:1015800043EA0123117802680B4302EB0C12C2F804
:10159000883102680CF1180C4FEA0C1C52F80C3020
:1015A00043F0010342F80C3000201DE04C6843EA90
:1015B000C403CC6823430CF11804240105682B51A3
:1015C000BFE7036803EB0E13596841F4807159605B
:1015D000C1E7436A43F400134362012004E0436A15
:1015E00043F480234362012030BD90F820C00CF109
:1015F000FF3C5FFA8CFCBCF1010F00F2A58030B417
:1016000051B90468E46814F0030F10D1436A43F43D
:101610000013436201207EE00468246914F0030F84
:1016200005D1436A43F400134362012073E0056867
:1016300001F11B0424012C5904F004049460002CD3
:101640006BD1056801F11B0424012C59640D146051
:10165000046801F11B0C4FEA0C1C54F80C4004F018
:101660000204D4600468A444DCF8045015F0080FA8
:101670005BD008241461046801F11B0C04EB0C140A
:101680006468C4F307249461046804EB0C14646870
:10169000240C5461026802EB0112D2F8B8211A70CE
:1016A000026802EB0112D2F8B821C2F307225A7085
:1016B000026802EB0112D2F8B821C2F307429A7015
:1016C000026802EB0112D2F8B821120EDA70026839
:1016D00002EB0112D2F8BC211A71026802EB01126E
:1016E000D2F8BC21C2F307225A71026802EB011240
:1016F000D2F8BC21C2F307429A71026802EB0112D0
:10170000D2F8BC21120EDA71C1B90268D36843F075
:101710002003D360002030BC7047056801F11B0432
:1017200024012C59E408546092E701F11B0504EBF5
:101730000514646804F00F0414619CE702681369DF
:1017400043F020031361E5E7436A43F480234362D7
:101750000120704790F82030013BDBB2012B05D906
:10176000436A43F48023436201207047026853694F
:101770000B435361002070477047704770477047B4
:1017800070477047704770477047704770477047A1
:101790002DE9F84F054603685C69D3F804809F681B
:1017A000D3F80CA0D3F81090D3F818B014F00106B9
:1017B0003BD017F0010616D001229A6017F0020FF5
:1017C00008D117F0040F0CD117F0080606D04FF41B
:1017D000805608E0FFF7D0FF002604E0FFF7CFFFB8
:1017E00001E04FF4006617F4807F0DD02B684FF4B2
:1017F00080729A6017F4007F40F0968017F4806F33
:1018000000F0968046F4005617F4803F0DD02B6808
:101810004FF480329A6017F4003F40F0938017F441
:10182000802F00F0938046F4004614F0080F07D094
:101830001AF0100F04D046F400762B681022DA60FC
:1018400014F0040F03D01AF0080F40F0898014F050
:10185000020F05D02B68DB6813F0030F40F0878080
:1018600014F0400F07D019F0100F04D046F4806632
:101870002B6810221A6114F0200F02D019F0080F03
:1018800079D114F0100F04D02B681B6913F0030FEB
:1018900078D114F4003F02D018F0100F76D114F470
:1018A000803F02D018F0080F77D114F4004F37D0E2
:1018B00018F0040F31D014F4807F04D01BF0010F16
:1018C00001D046F0010614F4007F04D01BF0020F93
:1018D00001D046F0020614F4806F04D01BF0040F10
:1018E00001D046F0040614F4006F16D01BF0700B04
:1018F00013D0BBF1400F66D056D8BBF1200F5CD09F
:10190000BBF1300F5CD0BBF1100F01D146F00806DF
:101910002A68936923F0700393612B6804225A604C
:10192000002E56D1BDE8F88F2846FFF726FF6BE75B
:1019300017F4006F02D046F4804665E72846FFF7AB
:101940001FFF61E72846FFF719FF6EE717F4002F26
:1019500002D046F4803668E72846FFF712FF64E7B6
:101960002B680822DA602846FFF70CFF6FE728464D
:101970000AF0CAFA74E72B6808221A612846FFF7B2
:1019800003FF7EE72846FFF7FEFE82E72B68102262
:101990005A602846FFF7F9FE81E72B6808225A6053
:1019A0002846FFF7F3FE80E7BBF1500F0ED0BBF1E6
:1019B000600FADD146F48076AAE746F01006A7E79F
:1019C00046F02006A4E746F04006A1E746F0800670
:1019D0009EE76B6A33436B622846FFF7D8FEA1E7A8
:1019E000002807DB00F01F02400901239340024A50
:1019F00042F82030704700BF00E100E0002808DB1B
:101A00000901C9B200F1604000F5614080F800139F
:101A1000704700F00F000901C9B2014B195470471B
:101A200014ED00E000B500F00700C0F1070CBCF1B8
:101A3000040F28BF4FF0040C031D062B0FD9C31E43
:101A40004FF0FF3E0EFA0CF021EA000199400EFA29
:101A500003FE22EA0E0241EA02005DF804FB0023C5
:101A6000EEE70000074AD36823F4E0631B041B0C75
:101A7000000200F4E060034343F0BF6343F400332B
:101A8000D360704700ED00E010B50446054BD86800
:101A9000C0F30220FFF7C6FF01462046FFF7AEFF66
:101AA00010BD00BF00ED00E008B5FFF799FF08BDCD
:101AB00058B110B5044643791BB10123637100206E
:101AC00010BD037107F0D2FCF7E70120704700005A
:101AD00010B40368D9B210390A4AA2FB01421209B4
:101AE000094CA25CC2655F2907D96FF3090304336F
:101AF0008365806D5DF8044B70476FF30903836560
:101B0000F7E700BFABAAAAAA00240108836A82698A
:101B100092B9012B0AD0022B02D00BB100207047E2
:101B2000C36A13F0807F28D100207047C36AB3F1E5
:101B3000C07F24D000207047B2F5005F09D0022B8F
:101B400025D9032B25D1C36A13F0807F23D1002030
:101B50007047032B03D8DFE803F01404140A0020B5
:101B60007047C36A13F0807F0DD100207047C36AAD
:101B7000B3F1C07F09D000207047012070470120D9
:101B800070470120704701207047012070470120F5
:101B900070470020704701207047000070B5044670
:101BA000FFF794F9002C5BD00546022384F835300A
:101BB000002384F834302268136823F00103136093
:101BC00023681A6812F0010F0AD0FFF77FF9431B50
:101BD000052BF5D920236365032084F8350070BDFB
:101BE0001A68204911406268A0680243E068024315
:101BF0002069024360690243A0690243E06902432D
:101C0000206A02430A43616A04291ED01A602668CA
:101C1000756925F00705636A1D43042B07D1A36A84
:101C20001D43E36A1BB12046FFF770FF90B9756151
:101C30002046FFF74DFFE26D3F2393408360002075
:101C40006065012384F83530C9E7E16A206B014300
:101C50000A43DBE740236365012084F83500BEE7D3
:101C60000120BCE73F8010F070B50446866DFFF799
:101C70002DF994F83530DBB2022B06D08023636552
:101C8000002384F83430012070BD054622681368B3
:101C900023F0160313602268536923F08003536115
:101CA000236CE3B12268136823F0080313602268F1
:101CB000136823F00103136023681B6813F0010FFE
:101CC00011D0FFF703F9431B052BF5D920236365DA
:101CD000032084F83500002384F83430D4E7A36C63
:101CE000002BDFD1E3E7E26D3F239340B360012394
:101CF00084F83530002084F83400C5E790F835309A
:101D0000DBB2022B03D080234365012070470523FB
:101D100080F835300268136823F001031360002057
:101D200070470000F0B583B0044600230193724B66
:101D30001D68724BA3FB0535AD0A876D3E68C26D09
:101D400008239340334210D003681A6812F0040F3E
:101D50000BD01A6822F004021A60C26D0823934067
:101D6000BB60436D43F001034365E26D0123934083
:101D7000334209D02268526912F0800F04D0BB6050
:101D8000636D43F002036365E26D042393403342C5
:101D900009D02268126812F0020F04D0BB60636D94
:101DA00043F004036365E26D10239340334224D073
:101DB0002268126812F0080F1FD0BB6023681A68EF
:101DC00012F4802F0DD01B6813F4002F04D1236C64
:101DD0009BB12046984710E0A36C73B1204698470A
:101DE0000BE01A6812F4807F03D11A6822F008020F
:101DF0001A60236C0BB120469847E26D2023934074
:101E0000334255D02268126812F0100F50D0BB60D8
:101E100094F83530DBB2052B0ED023681A6812F423
:101E2000802F33D01B6813F4002F2AD1636C002B52
:101E30003ED0204698473BE02268136823F0160303
:101E400013602268536923F080035361236CA3B1AC
:101E50002268136823F008031360E26D3F23934068
:101E6000BB60012384F83530002384F83430236DBF
:101E7000002B3FD0204698473CE0A36C002BE7D1D5
:101E8000EBE7E36BA3B12046984711E01A6812F420
:101E9000807F09D11A6822F010021A60012384F8A9
:101EA0003530002384F83430E36B0BB1204698477B
:101EB000636DFBB1636D13F0010F17D0052384F838
:101EC00035302268136823F001031360019B01334E
:101ED0000193AB4204D823681B6813F0010FF5D1BE
:101EE000012384F83530002384F83430E36C0BB1DF
:101EF0002046984703B0F0BDA4000020B5814E1BDA
:101F000000230F2B00F2E98070B582B065E0856890
:101F10004FEA430E032404FA0EF425EA0405CC68C4
:101F200004FA0EF42C438460446824EA02044A68EC
:101F3000C2F300129A40224342605CE0DC0808349D
:101F400050F8242003F00705AD004FF00F0E0EFAF5
:101F500005FE22EA0E0E0A69AA4042EA0E0240F885
:101F600024205CE0072200E0002202FA0EF22A435D
:101F700002345A4D45F82420594A94686FEA0C02FD
:101F800024EA0C054E6816F4801F01D04CEA0405C3
:101F9000534CA560E46802EA04054E6816F4001F7D
:101FA00001D04CEA04054E4CE560646802EA040581
:101FB0004E6816F4003F01D04CEA0405484C6560B9
:101FC000246822404D6815F4803F01D04CEA040299
:101FD000434C226001330F2B7DD801229A400C68BC
:101FE00004EA020C32EA0404F4D14C6804F003045D
:101FF000013C012C8BD94A6802F00302032A09D064
:10200000C4685D000322AA4024EA02048A68AA4048
:102010002243C2604A6802F00302022A8ED004689A
:102020004FEA430E032202FA0EF224EA02044A683F
:1020300002F0030202FA0EF2224302604A6812F42E
:10204000403FC7D000220192264A546C44F4804499
:102050005464526C02F480420192019A9C08A51CBF
:102060001E4A52F8255003F0030E4FEA8E0E0F223F
:1020700002FA0EF225EA02051B4A90423FF474AFC1
:1020800002F5806290421AD002F58062904218D028
:1020900002F58062904216D002F58062904214D020
:1020A00002F58062904212D002F58062904210D018
:1020B00002F5806290423FF455AF082255E70122B5
:1020C00053E7022251E703224FE704224DE705229E
:1020D0004BE7062249E702B070BD70470038014067
:1020E000003C014000380240000002400AB181611A
:1020F000704709048161704708B5054B5B6903426D
:1021000000D108BD024B586109F090FAF9E700BF11
:10211000003C014003685A6912F4806F01D100202D
:1021200070476FF480625A6100230363202280F8B5
:102130003D2080F83E30026C42F00402026480F8D8
:102140003C30012070472DE9F04106460C46174609
:1021500098463BE0FEF7BAFE069BC01A404502D8FF
:10216000B8F1000F32D1012D18D033689B6924EAF1
:1021700003039BB2B3FA83F35B099F4226D100238A
:102180003363202286F83D2086F83E30326C42F0E0
:102190002002326486F83C30012027E033685B6916
:1021A00024EA03039BB2B3FA83F35B09E5E73368E0
:1021B0005B6924EA030C1FFA8CFCBCFA8CFC4FEA26
:1021C0005C1C674511D1B8F1FF3FC3D1C4F307458B
:1021D000012DECD033689B6924EA030C1FFA8CFCB8
:1021E000BCFA8CFC4FEA5C1CEBE70020BDE8F081F8
:1021F0002DE9F84305460E469046994653E01A6885
:1022000042F400721A602B686FF480625A610023F6
:102210002B63202285F83D2085F83E302A6C42F061
:1022200004022A6485F83C3001204AE0FEF74EFEA5
:10223000A0EB0900404502D8B8F1000F33D1012FBF
:1022400017D02B689B6926EA03039BB2003B18BF9B
:10225000012343B300232B63202285F83D2085F81A
:102260003E302A6C42F020022A6485F83C3001207E
:1022700027E02B685B6926EA03039BB2003B18BF8B
:102280000123E6E72B689C6926EA0404A4B2003C1B
:1022900018BF0124A4B12B685A6912F4806FAED123
:1022A000B8F1FF3FC2D1C6F30747012FEAD12B682F
:1022B0005C6926EA0404A4B2003C18BF0124E9E7E3
:1022C0000020BDE8F88370B504460D461646236825
:1022D0005B6913F0800F21D12046FFF71BFFF8B98F
:1022E000B5F1FF3FF3D0FEF7F1FD801BA84201D806
:1022F000002DECD123685B6913F0800FE7D1002338
:102300002363202284F83D2084F83E30226C42F082
:102310002002226484F83C30012000E0002070BDDF
:102320000120FCE72DE9F04385B004460D469146B7
:102330001F46DDF830800D9E0368196841F48071F6
:1023400019600096434600224FF00111FFF7FBFE93
:1023500060B9236805F0FE051D61334642462649F3
:102360002046FFF745FF68B1012008E023681B689D
:1023700013F4807F02D04FF400732364032005B070
:10238000BDE8F0830023039323685A6903929B6995
:102390000393039B324641462046FFF794FF30B932
:1023A000012F0FD123685FFA89F61E61E7E7236CDE
:1023B000042B01D00120E2E72268136843F4007384
:1023C0001360F7E723684FEA19221A613246414643
:1023D0002046FFF778FF20B923685FFA89F61E616F
:1023E000CDE7236C042B01D00120C8E722681368D5
:1023F00043F400731360F7E7020001002DE9F04792
:1024000084B004460D46164699460C9FDDF834808C
:102410000268136843F4806313600368196841F429
:1024200080711960CDF800803B4600224FF0011109
:10243000FFF789FE70B95FFA85FA236805F0FE059B
:102440001D6143463A4641492046FFF7D1FE68B137
:10245000012008E023681B6813F4807F02D04FF44A
:1024600000732364032004B0BDE8F08700230393C6
:1024700023685A6903929B690393039B424639463A
:102480002046FFF720FF80B9B9F1010F18D123686A
:10249000F6B21E61424639462046FFF714FF68B384
:1024A000236C042B24D00120DDE7236C042B01D006
:1024B0000120D8E72268136843F400731360F7E73C
:1024C0002368320A1A61424639462046FFF7FBFE6E
:1024D00018B92368F6B21E61DCE7236C042B01D027
:1024E0000120C0E72268136843F400731360F7E724
:1024F0002268136843F400731360D4E722681368FA
:1025000043F480731360CDF800803B4600224FF007
:1025100001112046FFF717FE68B922684AF001034F
:10252000136143463A4609492046FFF761FE0028F9
:1025300099D0012097E723681B6813F4807F02D0AD
:102540004FF40073236403208DE700BF02000100F5
:1025500070B504460D46164623685B6913F0040FF8
:1025600021D12046FFF7D6FDF8B9B5F1FF3FF3D0F2
:10257000FEF7ACFC801BA84201D8002DECD12368EB
:102580005B6913F0040FE7D100232363202284F852
:102590003D2084F83E30226C42F02002226484F810
:1025A0003C30012000E0002070BD0120FCE770B548
:1025B00004460D46164614E06FF010025A610023DF
:1025C0002363202284F83D2084F83E30226C22646C
:1025D00084F83C30012025E023685B6913F0400F4C
:1025E00010D02368586910F0400F1AD1586910F0C4
:1025F000100FE1D1FEF76AFC801BA842ECD8002D39
:10260000EFD1E9E700232363202284F83D2084F8FA
:102610003E30226C42F02002226484F83C300120DB
:1026200000E0002070BD0000002800F0CC8070B5F4
:10263000044690F83D30002B77D0242384F83D30B9
:102640002268136823F0010313602268136843F4BF
:10265000004313602268136823F40043136001F001
:1026600031FC62685A4B9A4264D85A4B98428CBFEC
:1026700000230123002B40F0A8805749A1FB003123
:102680008B0C25686A6822F03F0242EA91426A6038
:1026900021680A6A22F03F0266684D4DAE424FD86B
:1026A000013313430B622168CA6922F44F4222F0BE
:1026B000FF026568464B9D424CD8431E6D00B3FB3C
:1026C000F5F3013340F6FC70034278D0C3F30B03FB
:1026D0001A43CA6121680B6823F0C003E269206ACB
:1026E000024313430B6021688B6823F4034323F0F8
:1026F000FF032269E068024313438B602168CB68C3
:1027000023F0FF036269A06902431343CB60226890
:10271000136843F00103136000202064202384F831
:102720003D30206384F83E0070BD80F83C3007F0F7
:1027300001F982E7294B98428CBF0023012399E7D6
:102740004FF4967505FB03F3254DA5FB03539B0939
:102750000133A6E7A668BEB9431E05EB450CB3FBE3
:10276000FCF30133C3F30B03B3FA83F35B0943BBFD
:10277000C6B9431E05EB4505B3FBF5F30133C3F3BF
:102780000B0343F40043A3E7431E05EB850C0CEB5E
:102790008C0CB3FBFCF30133C3F30B03B3FA83F3E9
:1027A0005B09E4E7431E05EB850505EB8505B3FBF7
:1027B000F5F30133C3F30B0343F4404388E70423E9
:1027C00086E7012384E7012070470120ACE700BFC2
:1027D000A08601007F841E0083DE1B43FF083D00AE
:1027E000D34D62102DE9F04383B004460F46904666
:1027F00099460C9EFEF76AFB054694F83D00C0B270
:10280000202803D0022003B0BDE8F08300951923EF
:1028100001224B492046FFF796FC002840F08980B2
:1028200094F83C30012B00F08680012384F83C3082
:1028300023681A6812F0010F03D11A6842F00102EE
:102840001A602268136823F400631360212384F85C
:102850003D30402384F83E30002323640A9B6362AA
:10286000BDF82C306385638D2385364BE36201957B
:1028700000964B46424639462046FFF753FD002856
:102880005BD1238D002B35D02A4631462046FFF7F9
:102890001AFD20BB626A236812781A61626A531CAF
:1028A0006362218D013989B22185638D9BB2013B21
:1028B0009BB263852368586910F0040FE1D00029AA
:1028C000DFD052781A61636A01336362238D013B62
:1028D0002385638D9BB2013B9BB26385D1E7236C5B
:1028E000042B01D001208EE72268136843F40073A3
:1028F0001360F7E72A4631462046FFF729FE50B11C
:10290000236C042B01D001207DE72268136843F477
:1029100000731360F7E72268136843F400731360D1
:10292000202384F83D30002384F83E3084F83C3086
:1029300069E7022067E7022065E7012063E700BF3F
:10294000020010000000FFFF2DE9F04387B00446AD
:102950000F4690469946109EFEF7B8FA054694F841
:102960003D00C0B2202804D00227384607B0BDE899
:10297000F08300951923012288492046FFF7E3FBE5
:10298000002840F04D8194F83C30012B00F04A8142
:10299000012384F83C3023681A6812F0010F03D138
:1029A0001A6842F001021A602268136823F4006377
:1029B0001360222384F83D30402384F83E30002306
:1029C00023640E9B6362BDF83C306385638D238571
:1029D000734BE362019500964B46424639462046CA
:1029E000FFF70CFD0746002840F01E81238D5BB9E0
:1029F000029323685A6902929A690292029A1A68AB
:102A000042F400721A6075E0012B0AD0022B1AD032
:102A10000023059323685A6905929B690593059BDA
:102A200068E02268136823F4806313600023039333
:102A300023685A6903929A690392039A1A6842F4C6
:102A400000721A6056E02268136823F480631360F2
:102A50002268136843F4006313600023049323681F
:102A60005A6904929B690493049B43E02A463146C9
:102A70002046FFF79CFD002840F0D88023681A69A3
:102A8000636A1A70636A01336362238D013B238595
:102A9000638D9BB2013B9BB263852BE0009533466F
:102AA000002240492046FFF74EFB002840F0C0803E
:102AB0002268136843F40073136023681A69636A19
:102AC0001A70626A531C6362238D013B2385638DF8
:102AD0009BB2013B9BB2638523681B695370636A99
:102AE00001336362238D013B2385638D9BB2013BE0
:102AF0009BB26385238D002B00F08980032B53D874
:102B0000012BB3D0022BC9D00095334600222549B2
:102B10002046FFF718FB002840F08C8022681368DD
:102B200023F48063136023681A69636A1A70636A06
:102B300001336362238D013B2385638D9BB2013B8F
:102B40009BB2638500953346002216492046FFF765
:102B5000FAFA002870D12268136843F400731360F6
:102B600023681A69636A1A70626A531C6362238D50
:102B7000013B2385638D9BB2013B9BB26385236838
:102B80001B695370636A01336362238D013B2385A4
:102B9000638D9BB2013B9BB26385ABE702001000E3
:102BA0000000FFFF040001002A4631462046FFF7DF
:102BB000FEFC002842D123681A69636A1A70636AAE
:102BC00001336362228D013A92B22285638D9BB2FA
:102BD000013B9BB263852368596911F0040F89D0CA
:102BE000032A0FD023681A69636A1A70636A013373
:102BF0006362238D013B2385638D9BB2013B9BB2B6
:102C0000638577E71A6822F480621A60EAE7202376
:102C100084F83D30002384F83E3084F83C30A4E64C
:102C20000227A2E60227A0E601279EE601279CE6EE
:102C300001279AE6012798E6012796E6012794E600
:102C40002DE9F04383B0D0F8008001EBC10300EB25
:102C500083039A6A5B6A9A4254D807460C469B1AC9
:102C600001EBC10200EB8202D2699A4200D31A46FC
:102C700002F103094FEA990915E006F103094FEA49
:102C80009909BB7904EBC40507EB8505296A009314
:102C9000B3B2E2B2404602F0C8FF2B6A33442B6263
:102CA000AB6A3344AB6208EB441303F510639B69D2
:102CB0009BB24B4512D304EBC40307EB83039A6A20
:102CC0005B6A9A420AD24BB19B1A04EBC40207EB2F
:102CD0008202D6699E42D0D31E46CEE704EBC403DF
:102CE00007EB83077A6ABB6A9A420FD804F00F0495
:102CF0000122A240D8F8343823EA0203C8F8343855
:102D0000002000E0012003B0BDE8F0830020FAE7D6
:102D100030B583B000287AD00446056890F8953421
:102D2000C3B1032384F89534B5F1A04F17D02068C0
:102D300002F02EFD237C8DF80030231D0ECB206881
:102D400002F064FC70B1022384F895340125284612
:102D500003B030BD80F8943407F0C2FFE1E70023F0
:102D6000A371E4E70021206803F075F9024608B971
:102D7000034617E0022384F895340125E7E703EBC7
:102D8000C30104EB8101012048750B75CB85002040
:102D90000876C861086203EBC30104EB8101486255
:102DA0000133DBB220799842E9D816E002EBC20386
:102DB00004EB8303002183F8551283F8542283F82F
:102DC0005812C3F85C12C3F8601202EBC20304EBA2
:102DD0008303C3F864120132D2B29042E6D8237C56
:102DE0008DF80030231D0ECB206802F027FD05462C
:102DF00020B1022384F895340125A8E700236374E9
:102E0000012384F89534206803F0E4F89FE7012556
:102E10009DE7036890F89424012A1AD010B504465F
:102E2000012280F89424DA6812F0400F02D0427B2D
:102E3000012A09D0206802F0A5FC206803F0BCF844
:102E4000002084F8940410BD9A6B42F480329A6397
:102E5000F0E702207047000070B504460D46006898
:102E6000066C00EB411303F530639A68A1790129E0
:102E700011D038498E4256D03DB905EBC50304EB5D
:102E80008303D3F86432002B5ED0E9B2204607F00A
:102E900071FF002070BD12F0080F09D02E498E423C
:102EA000F7D912F4004FF4D04FF400429A60F0E7E3
:102EB00012F0200F02D020229A60EAE712F0280FC9
:102EC000E7D125498E4206D912F4004F03D04FF4C2
:102ED00000429A60DDE705EBC50204EB8202D2F8FE
:102EE00074121B69C3F31203CB1AC2F868327DB99E
:102EF00005EBC50204EB8202D2F864226AB105EB4D
:102F0000C50204EB8202D2F860121944C2F86012C2
:102F1000E9B2204607F02EFFBBE704F29C420121F4
:102F200003F0D8F8F4E712F4004F03D04FF4004256
:102F30009A60AEE712F0200F01D020229A60E9B229
:102F4000204607F017FFA4E704F29C42002103F09B
:102F5000C1F89AE70A31544F0A30544F38B5044645
:102F600003681D6C03EB4113D3F8081B0E4A95420E
:102F700007D903F5306311F4004F02D04FF400423B
:102F80009A60204607F0EEFE074B9D4202D9A379D6
:102F9000012B01D0002038BD04F29C4201212068A1
:102FA00003F098F8F6E700BF0A30544F90F89434D5
:102FB000012B0CD010B50446012380F894344174E1
:102FC000006802F0E9FF002084F8940410BD02209C
:102FD000704738B505468C4611F0800F2BD101F0B3
:102FE0000F0E0EEBCE04A40004F514740444211D4E
:102FF0000EEBCE0E00EB8E0E00208EF855020CF07C
:103000000F0C81F800C0C2F30A028A600B714A7883
:103010000AB1A1F81AC0022B1CD095F89434012BE8
:103020001BD0012385F89434286802F0E2FC0020CC
:1030300085F8940438BD01F00F0000EBC001890051
:1030400010312944043100EBC00005EB800001245D
:103050004475D4E700234B71DFE70220EAE710B59F
:1030600004460A4611F0800F20D101F00F0000EB5A
:10307000C0039B0003F514732344191D00EBC0002B
:1030800004EB8000002380F8553202F00F020A7032
:1030900094F89434012B18D0012384F894342068D8
:1030A00002F0F4FC002084F8940410BD01F00F003D
:1030B00000EBC0039B0010332344191D00EBC0003C
:1030C00004EB800001234375DFE70220EDE710B534
:1030D000144601F00F0C0CEBCC01890001F51471C2
:1030E000014404310CEBCC0E00EB8E0ECEF86022C6
:1030F000CEF864320023CEF868328EF855328EF85E
:1031000054C28279012A04D0006802F0A5FD002093
:1031100010BDCEF87042F7E701F00F0101EBC101DD
:1031200000EB8100D0F86802704710B5144601F03A
:103130000F0C0CEBCC0189001031014404310CEB75
:10314000CC0E00EB8E0ECEF82020CEF824300023DB
:10315000CEF8283001238EF815308EF814C082790D
:103160009A4204D0006802F077FD002010BDCEF82E
:103170003040F7E738B501F00F050279AA4238D39D
:1031800004460B4611F0800F1FD101EBC1018900ED
:1031900001F514710144043103EBC30300EB830315
:1031A000002283F8552201238B700D7094F894341B
:1031B000012B20D0012384F89434206802F091FE82
:1031C00085B1002084F8940438BD05EBC501890061
:1031D00010310144043105EBC50300EB83030122E8
:1031E0005A75E0E704F29C42A179206802F072FF70
:1031F000E7E70120E8E70220E6E701F00F030279A4
:103200009A4230D310B5044611F0800F1ED103EB63
:10321000C301890001F514710144043103EBC302B9
:1032200000EB8202002082F8550200228A700B70A7
:1032300094F89434012B18D0012384F89434206836
:1032400002F07CFE002084F8940410BD03EBC3015F
:10325000890010310144043103EBC30200EB820208
:1032600001205075E1E7012070470220EDE708B525
:1032700011F0800F0CD101F00F0101EBC1018900A9
:1032800001F5147101440431006802F06FFC08BDBF
:1032900001F00F0101EBC10189001031014404313B
:1032A000F2E72DE9F04F83B004460568284602F0A6
:1032B000CEFE10B103B0BDE8F08F0646206802F0E4
:1032C00097FE0028F6D005F50067BB68C3F30D2311
:1032D000C4F8D434206802F08BFE10F0020F04D042
:1032E0002268536903F002035361206802F080FEF4
:1032F00010F0100F15D02268936923F0100393612A
:10330000D5F8208008F00F0908F4F013B3F5802FEA
:103310004CD0B3F5402F6FD02268936943F010036F
:103320009361206802F064FE10F4002F76D12068CB
:1033300002F05EFE10F4802F40F0E080206802F082
:1033400057FE0028C0F26181206802F051FE10F49F
:10335000006F09D0BB6813F0010F40F06E81226846
:10336000536903F400635361206802F041FE10F4D6
:10337000805F40F06681206802F03AFE10F4005F42
:1033800040F0B381206802F033FE10F0080F40F0E7
:10339000C481206802F02CFE10F0800F00F0D7816D
:1033A000AB6923F08003AB610126C0E147F6F073FF
:1033B00018EA030FB0D04FEA181A4FEAC903019375
:1033C00009EBC90B04EB8B0BC8F30A12DBF8601294
:1033D000284602F063FDDBF86032CAF30A0A534460
:1033E000CBF86032DBF86832019A4A4404EB82027F
:1033F0005344C2F868328FE7082204F29C41284601
:1034000002F04CFD09EBC90304EB8303D3F86822F7
:10341000C8F30A184244C3F868227DE7206802F026
:10342000EBFD8046B14635E005EB49130122C3F8B8
:10343000082B49462046FFF70FFD3CE005EB4913FA
:103440000822C3F8082B49462046FFF787FD35E0E0
:1034500009EBC90304EB830393F85732012B41D0E6
:1034600005EB49130222C3F8082B1AF0200F04D0F1
:1034700005EB49132022C3F8082B1AF4005F05D08E
:1034800005EB49134FF40052C3F8082B09F1010969
:103490004FEA5808B8F1000F3FF449AF18F0010F98
:1034A000F4D05FFA89FB5946206802F0B5FD8246E8
:1034B00010F0010FB8D11AF0080FBFD11AF0100F99
:1034C00004D005EB49131022C3F8082B1AF0020FA1
:1034D000CBD06B6913F0800FBAD07B6843F4806364
:1034E0007B60B5E709EBC90304EB8303002283F893
:1034F00057225946204607F08DFCB1E7206802F0BC
:1035000083FD8046B14625E05946204607F03EFC43
:103510001AF0080F04D005EB49130822C3F8082954
:103520001AF0100F04D005EB49131022C3F8082934
:103530001AF0400F04D005EB49134022C3F80829C4
:103540001AF0020F40D11AF0800F59D109F1010988
:103550004FEA5808B8F1000F3FF4F0AE18F0010F31
:10356000F4D05FFA89FB5946206802F05EFD82467E
:1035700010F0010FCCD009F00F02012101FA02F284
:103580007B6B23EA02037B6305EB4913C3F808193D
:10359000A3798B42B8D109EBC90304EB83031A6A00
:1035A000D9690A441A62B9F1000FADD109EBC90318
:1035B00004EB83035B6A002BA6D104F29C42012139
:1035C000206802F087FD9FE74946284602F0E6F8AA
:1035D00009EBC90304EB8303DB7D012B05D005EB6D
:1035E00049130222C3F80829ADE709EBC90304EB2C
:1035F00083030022DA755946204607F011FCEEE7F6
:1036000049462046FFF71CFBA0E77B6823F0010337
:103610007B6094F8CC34012B08D0204607F0F4FBF3
:103620002268536903F0004353618DE6002184F85A
:10363000CC14204600F03EF9F2E7204607F0CCFB20
:103640008DE67B6823F001037B601021206802F087
:10365000A5F81AE005EB46134FF67F31C3F80819B9
:10366000D3F8002922F40012C3F80029C3F8081B7C
:10367000D3F8002B22F40012C3F8002BD3F8002B50
:1036800042F00062C3F8002B01362379B342E1D83F
:10369000FB6943F00113FB61E37BDBB1D7F88430B6
:1036A00043F00B03C7F884307B6C43F00B037B645F
:1036B000D5F8003823F4FE63C5F8003804F29C42C4
:1036C000A179206802F006FD2268536903F4805353
:1036D000536150E67B6943F4005343F02B037B6155
:1036E0003B6943F00B033B61E2E7206802F0E4FC36
:1036F000206802F06DF9E071266800F0DDFB0146FC
:10370000E279304601F0CCFF204607F050FB2268FA
:10371000536903F40053536134E6204607F041FB3C
:103720002268536903F00803536132E601362379B6
:10373000B3420CD906EBC60304EB830393F857326C
:10374000012BF3D1F1B22046FFF791FDEEE720689F
:1037500002F04EFC10F4801F25D1206802F048FCD6
:1037600010F4001F58D0012326E001362379B3421C
:103770001BD905EB4613D3F8002906EBC60304EB6F
:1037800083031B7E012BF0D1002AEEDA06EBC60381
:1037900004EB83030122DA7566F07F01C9B220468B
:1037A000FFF765FDE1E70126E0E72268536903F4CE
:1037B00080135361D1E7013322799A4227D905EB6F
:1037C0004312D2F8001B03EBC30204EB820292F80F
:1037D0005822012AEFD10029EDDAD4F8D42482EA64
:1037E000114212F0010FE6D103EBC30204EB820297
:1037F000012182F85712AA6942F08002AA616A691F
:1038000012F0800FD7D17B6843F400737B6022688D
:10381000536903F400135361206802F0E9FB10F0D0
:10382000804F10D1206802F0E3FB10F0040F3FF44A
:1038300041AD23685D6815F0040F0DD1226853680F
:103840002B43536036E5204607F0F0FA22685369AF
:1038500003F080435361E5E7204607F0EDFAEDE71A
:1038600010B40468606A31B940EA0240A0620020E6
:103870005DF8044B70478C46A36A00EB13400023AD
:1038800008E003F1400104EB8101496800EB1140BD
:103890000133DBB20CF1FF318B42F2D340EA02403C
:1038A0000CF13F0104EB81046060E0E703685962BA
:1038B0000020704770470000002800F0E08170B5DC
:1038C00082B00446036813F0010F3BD09F4B9B6806
:1038D00003F00C03042B2CD09C4B9B6803F00C03CF
:1038E000082B21D06368B3F5803F4FD0B3F5A02FEC
:1038F00052D0964B1A6822F480321A601A6822F469
:1039000080221A606368002B50D0FDF7DFFA05466D
:103910008E4B1B6813F4003F14D1FDF7D7FA401B00
:103920006428F5D90320B1E1884B5B6813F4800F5C
:10393000D8D0864B1B6813F4003F03D06368002B7C
:1039400000F09F81236813F0020F54D07F4B9B68D7
:1039500013F00C0F3ED07D4B9B6803F00C03082B3B
:1039600033D0E368002B68D0794B01221A60FDF751
:10397000ADFA0546754B1B6813F0020F54D1FDF7E5
:10398000A5FA401B0228F5D903207FE16F4A13688E
:1039900043F480331360B5E76C4B1A6842F480221D
:1039A0001A601A6842F480321A60ABE7FDF78EFAAB
:1039B0000546664B1B6813F4003FC3D0FDF786FA3B
:1039C000401B6428F5D9032060E1604B5B6813F469
:1039D000800FC6D15D4B1B6813F0020F03D0E36864
:1039E000012B40F05081594A136823F0F8032169F4
:1039F00043EAC1031360236813F0080F42D06369E0
:103A00006BB3534B0122C3F8802EFDF75FFA0546D6
:103A10004E4B5B6F13F0020F34D1FDF757FA401B8A
:103A20000228F5D9032031E1484A136823F0F8034E
:103A3000216943EAC1031360DDE7454B00221A60A8
:103A4000FDF744FA0546414B1B6813F0020FD2D034
:103A5000FDF73CFA401B0228F5D9032016E13C4B48
:103A60000022C3F8802EFDF731FA0546374B5B6F15
:103A700013F0020F06D0FDF729FA401B0228F5D9F2
:103A8000032003E1236813F0040F77D02F4B1B6C46
:103A900013F0805F33D1002301932C4B1A6C42F05A
:103AA00080521A641B6C03F080530193019B012523
:103AB000284B1B6813F4807F23D0A368012B34D0DC
:103AC000052B38D0214B1A6F22F001021A671A6FAA
:103AD00022F004021A67A368002B3DD0FDF7F6F927
:103AE00006461A4B1B6F13F0020F46D1FDF7EEF995
:103AF000801B41F288339842F3D90320C6E00025A9
:103B0000D6E7144A136843F480731360FDF7DEF9B7
:103B10000646104B1B6813F4807FCED1FDF7D6F913
:103B2000801B0228F5D90320B0E0084A136F43F048
:103B300001031367CFE7054B1A6F42F004021A67BF
:103B40001A6F42F001021A67C5E700BF0038024051
:103B50000000474200700040FDF7B8F90646524B9E
:103B60001B6F13F0020F08D0FDF7B0F9801B41F274
:103B700088339842F3D9032088E0EDB9A369002B7C
:103B800000F08380484A926802F00C02082A51D063
:103B9000022B17D0454B00221A66FDF797F9044611
:103BA000414B1B6813F0007F42D0FDF78FF9001BDB
:103BB0000228F5D9032069E03B4A136C23F08053B7
:103BC0001364DBE7394B00221A66FDF77FF90546DF
:103BD000354B1B6813F0007F06D0FDF777F9401BCB
:103BE0000228F5D9032051E0E369226A1343626A8F
:103BF00043EA8213A26A5208013A43EA0243E26AA4
:103C000043EA0263284A5360284B01221A66FDF7F3
:103C10005DF90446244B1B6813F0007F06D1FDF7C5
:103C200055F9001B0228F5D903202FE000202DE0D4
:103C300000202BE0012B2BD01B4B5B6803F4800191
:103C4000E269914226D103F03F02216A8A4223D1E0
:103C5000616A47F6C0721A40B2EB811F1ED103F4AD
:103C60004031A26A5208013AB1EB024F18D103F079
:103C70007063E26AB3EB026F14D1002006E001200A
:103C80007047012002E0012000E0002002B070BD7A
:103C90000120FBE70120F9E70120F7E70120F5E724
:103CA0000120F3E70120F1E700380240000047421D
:103CB00008B5264B9B6803F00C03042B41D0082B5E
:103CC00041D1224B5A6802F03F025B6813F4800F27
:103CD00012D01E4B5968C1F388111D480023A1FB67
:103CE0000001FCF713FF194B5B68C3F30143013379
:103CF0005B00B0FBF3F008BD144B5868C0F38810AC
:103D00004FEA401CBCEB000C6EEB0E0E4FEA8E131C
:103D100043EA9C634FEA8C11B1EB0C0163EB0E0399
:103D2000DB0043EA5173C90011EB000C43F10003BF
:103D3000990200234FEA8C2041EA9C51FCF7E6FEF1
:103D4000D1E70348D7E70348D5E700BF0038024072
:103D5000001BB7000024F400002800F09B8070B521
:103D60000D4604464F4B1B6803F007038B4208D2F5
:103D7000CBB24C4A1370136803F007038B4240F038
:103D80008B80236813F0020F17D013F0040F04D0B8
:103D9000454A936843F4E0539360236813F0080F97
:103DA00004D0414A936843F4604393603E4A936869
:103DB00023F0F003A1680B439360236813F0010F15
:103DC00032D06368012B21D09A1E012A25D9364AA8
:103DD000126812F0020F61D033498A6822F00302A0
:103DE00013438B60FDF772F806462F4B9B6803F078
:103DF0000C036268B3EB820F16D0FDF767F8801BE7
:103E000041F288339842F0D9032042E0264A1268F2
:103E100012F4003FE0D101203BE0234A126812F087
:103E2000007FD9D1012034E01E4B1B6803F007034B
:103E3000AB4207D9EAB21B4B1A701B6803F00703A9
:103E4000AB422DD1236813F0040F06D0164A9368B5
:103E500023F4E053E1680B439360236813F0080FE9
:103E600007D0114A936823F46043216943EAC103F0
:103E70009360FFF71DFF0C4B9B68C3F303130B4AC2
:103E8000D35CD8400A4B18600A4B186806F066F8F5
:103E9000002070BD012070470120FAE70120F8E7FB
:103EA0000120F6E7003C024000380240A02401084F
:103EB000A400002014000020014B1868704700BFC8
:103EC000A400002008B5FFF7F7FF044B9B68C3F37D
:103ED0008223034AD35CD84008BD00BF00380240AB
:103EE0009824010808B5FFF7E7FF044B9B68C3F36C
:103EF0004233034AD35CD84008BD00BF00380240BB
:103F0000982401080F2303600B4B9A6802F0030208
:103F100042609A6802F0F00282609A6802F4E0520D
:103F2000C2609B68DB0803F4E0530361034B1B682A
:103F300003F007030B60704700380240003C02406A
:103F400030B583B00446036813F0050F06D123682B
:103F500013F0020F2ED1002003B030BD4A4B0022D7
:103F60009A66FCF7B3FF0546484B1B6813F0006FD9
:103F700006D0FCF7ABFF431B022BF5D90320EBE780
:103F80006268A3681B0743EA8213404AC2F8843080
:103F90003D4B01229A66FCF799FF05463B4B1B6897
:103FA00013F0006FD3D1FCF791FF431B022BF5D91F
:103FB0000320D1E700230193344B1A6C42F0805266
:103FC0001A641B6C03F080530193019B304A136801
:103FD00043F480731360FCF779FF05462C4B1B6894
:103FE00013F4807F06D1FCF771FF431B022BF5D938
:103FF0000320B1E7254B1B6F13F4407314D0E26824
:1040000002F440729A420FD0204B1A6F22F4407291
:104010001D490120C1F8400E0020C1F8400E1A676A
:104020001B6F13F0010F13D1E36803F44072B2F574
:10403000407F1ED0154A936823F4F8139360134908
:104040000B6FE268C2F30B0213430B67002083E798
:10405000FCF73CFF05460D4B1B6F13F0020FE3D13D
:10406000FCF734FF401B41F288339842F3D9032018
:1040700072E706498A6822F4F81223F0704323F4A9
:10408000407313438B60DAE7000047420038024078
:104090000070004098B110B5044643795BB102232B
:1040A00063712268136843F0040313600123637192
:1040B0000020A06010BD037105F0CCFDEFE70120EA
:1040C0007047000038B5044603680A4ADA60FCF716
:1040D000FDFE05462368DB6813F0200F07D1FCF7CF
:1040E000F5FE401BB0F57A7FF4D9032000E00020F4
:1040F00038BD00BF5F7F010070B50368DA6812F059
:10410000400F02D00025284670BD0446DA6842F010
:104110008002DA60FCF7DAFE064600252368DB68D9
:1041200013F0400FEFD1002DEDD1FCF7CFFE831B34
:10413000B3F57A7FF2D9042363770125EEE70268AD
:10414000D36823F08003D36003689B6813F0200FCB
:1041500001D00020704710B50446FFF7B3FF10B13F
:1041600004236377012010BD00284AD010B504460F
:10417000437F53B1022363772368DA6812F0100F8C
:1041800007D000200123637710BD037705F094FD6D
:10419000F0E7CA225A62236853225A622046FFF788
:1041A000ABFF28B12368FF225A620028ECD1E9E76F
:1041B0002268936823F4E00323F0400393602168AE
:1041C0008A686368206903436069034313438B6013
:1041D0002368E2681A6122681369A16843EA01430F
:1041E00013612046FFF7ABFF0028DBD12268136C78
:1041F00023F4802313642268136CA1690B431364B6
:10420000D0E70120704700002DE9F04782B0054655
:10421000884617461E46FCF759FE0A9B1B1A03EBFD
:104220000609FCF753FE8246284B1B68C3F3CB33C9
:1042300009FB03F301932B689C6838EA04040CBF64
:1042400001230023BB423DD0B6F1FF3FF3D0FCF782
:104250003DFEA0EB0A00484503D2019B73BB994683
:10426000E9E72A68536823F0E00353606B68B3F50D
:10427000827F0BD0AB6AB3F5005F14D0012385F8C1
:104280005130002385F8503003201CE0AB68B3F5B3
:10429000004F02D0B3F5806FECD12A68136823F089
:1042A00040031360E6E72A68136823F400531360A1
:1042B0002A68136843F400531360DFE7019B013B56
:1042C0000193B8E7002002B0BDE8F087A400002009
:1042D00070B584B004460D46164600920B46012286
:1042E0000221FFF791FFD0B9174B1B68174AA2FBB9
:1042F00003235B0D4FF47A7202FB03F303936368AD
:10430000B3F5827F11D0039B3BB1039B013B039329
:1043100023689B6813F0800FF5D104B070BD636D06
:1043200043F0200363650320F7E700962B46002245
:1043300080212046FFF768FF0028EED0636D43F030
:10434000200363650320E8E7A4000020819F5E1638
:1043500000285AD010B50446436A33B94368B3F510
:10436000827F05D00023C36102E000230361436123
:104370000023A36294F85130002B40D0022384F82C
:1043800051302268136823F040031360636803F41C
:104390008273A26802F404421343E26802F40062EA
:1043A0001343226902F002021343626902F0010220
:1043B0001343A26902F400721343E26902F0380267
:1043C0001343226A02F080021343A26A02F40052ED
:1043D000216813430B60638B03F00403626A02F0ED
:1043E0001002216813434B602268D36923F40063F1
:1043F000D36100206065012384F8513010BD84F83A
:104400005030204605F0C4FCB8E7012070472DE984
:10441000F04383B00446884691461F460A9DFCF748
:1044200055FD064694F85130DBB26268012B0AD084
:10443000B2F5827F40F00581A268002A40F0058134
:10444000042B40F00481B8F1000F00F00281B9F1B3
:10445000000F00F00081002F00F0FF8094F8503032
:10446000012B00F0FC80012384F8503094F8513087
:10447000DBB2042B02D0052384F85130002363659E
:10448000C4F83890E787A787C4F83080E786A78606
:104490002364636423681A6812F0400F03D11A681A
:1044A00042F040021A60E368B3F5006F11D0636810
:1044B0000BB1012F0BD1226B236812781A73236B77
:1044C00001332363E38E9BB2013B9BB2E38601275A
:1044D00071E063680BB1012F0BD1226B2368128846
:1044E000DA60236B02332363E38E9BB2013B9BB202
:1044F000E38601271BE023689A6812F0010F0ED0B3
:10450000E28F92B25AB1DA68A36B1A80A36B0233BE
:10451000A363E38F9BB2013B9BB2E3870127FCF7C8
:10452000D5FC801BA84202D3B5F1FF3F1ED1E38E1C
:104530009BB21BB9E38F9BB2002B62D023689A68B1
:1045400012F0020FD7D0E28E92B2002AD3D0002F01
:10455000D1D0226B1288DA60236B02332363E38E9F
:104560009BB2013B9BB2E3860027C4E7012384F89A
:104570005130002384F85030032063E023689A68A8
:1045800012F0010F0ED0E28F92B25AB1DA68A36B2B
:104590001A70A36B0133A363E38F9BB2013B9BB201
:1045A000E3870127FCF792FC831BAB4202D3B5F1F2
:1045B000FF3F1ED1EDB1E38E9BB213B9E38F9BB2E7
:1045C000FBB123689A6812F0020FD7D0E28E92B244
:1045D000002AD3D0002FD1D0226B12781A73236B0C
:1045E00001332363E38E9BB2013B9BB2E38600273A
:1045F000C4E7012384F85130002384F850300320AD
:1046000020E0324629462046FFF762FE90B9A368B3
:1046100033B901932368DA6801929B680193019B87
:10462000012384F85130002384F85030636D4BB17E
:10463000012007E020236365002384F85030012027
:1046400000E0022003B0BDE8F0830220FAE7022078
:10465000F8E70120F6E70120F4E70120F2E7022065
:10466000F0E7000030B4036A026A22F0010202623D
:104670004268846924F0730C0C6844EA0C0423F04B
:10468000020C8B6843EA0C03114DA84203D005F5D8
:104690008065A84205D123F00803CD682B4323F0A1
:1046A00004030B4DA84203D005F58065A84207D14D
:1046B00022F440724D6945EA020C8A6942EA0C0212
:1046C000426084614A684263036230BC704700BF45
:1046D0000000014030B4036A026A22F48072026270
:1046E0004268C46924F0730C0C6844EA0C0523F496
:1046F00000738C6843EA0423114CA04203D004F5F4
:104700008064A04206D123F40063CC6843EA04230A
:1047100023F480630A4CA04203D004F58064A042D5
:1047200007D122F440524C6942EA04128C6942EAF1
:1047300004124260C5614A68C263036230BC7047BC
:104740000000014030B4036A026A22F4805202621F
:104750004468C26922F4E6420D6842EA052223F465
:1047600000538D6843EA0533094DA84203D005F58F
:104770008065A84204D124F480444D6944EA85143C
:104780004460C2614A680264036230BC704700BF83
:104790000000014010B4036A046A24F001040462BA
:1047A000846924F0F00C4CEA021223F00A030B4354
:1047B000826103625DF8044B704710B4036A046AB7
:1047C00024F010040462846924F4704C4CEA023230
:1047D00023F0A00343EA0113826103625DF8044BF6
:1047E0007047836823F070030B4343F00703836033
:1047F0007047000090F83D30DBB2012B37D1022327
:1048000080F83D300268D36843F00103D360036849
:10481000194A934220D0B3F1804F1DD0A2F57C42BB
:10482000934219D002F58062934215D002F580625E
:10483000934211D002F5784293420DD002F57052A6
:10484000934209D0A2F59432934205D01A6842F0FF
:1048500001021A60002070479A6802F00702062AD7
:1048600007D01A6842F001021A6000207047012048
:1048700070470020704700BF00000140704770473C
:1048800070477047704770B504460368DE681D695D
:1048900015F0020F10D016F0020F0DD06FF00202CB
:1048A0001A610123037703689B6913F0030F5ED03D
:1048B000FFF7E6FF0023237715F0040F12D016F060
:1048C000040F0FD023686FF004021A6102232377CC
:1048D00023689B6913F4407F4FD02046FFF7D0FF39
:1048E0000023237715F0080F12D016F0080F0FD011
:1048F00023686FF008021A61042323772368DB69B9
:1049000013F0030F40D02046FFF7BAFF00232377B0
:1049100015F0100F12D016F0100F0FD023686FF0A3
:1049200010021A61082323772368DB6913F4407FA0
:1049300031D02046FFF7A4FF0023237715F0010FA5
:1049400002D016F0010F2DD115F0800F02D016F015
:10495000800F2FD115F0400F02D016F0400F31D14B
:1049600015F0200F02D016F0200F33D170BDFFF7E5
:1049700086FF2046FFF785FF9CE72046FFF77FFF75
:104980002046FFF77EFFABE72046FFF778FF204683
:10499000FFF777FFBAE72046FFF771FF2046FFF7E2
:1049A00070FFC9E723686FF001021A61204605F025
:1049B00093F8C9E723686FF080021A61204600F07F
:1049C00005FBC7E723686FF040021A612046FFF736
:1049D00059FFC5E723686FF020021A61204600F0F6
:1049E000F4FAC3E70368324A904212D0B0F1804F24
:1049F0000FD0A2F57C4290420BD002F5806290422B
:104A000007D002F58062904203D002F578429042CE
:104A100003D123F070034A681343254A90422AD0F9
:104A2000B0F1804F27D0A2F57C42904223D002F50E
:104A3000806290421FD002F5806290421BD002F546
:104A40007842904217D002F57052904213D002F58E
:104A5000806290420FD002F5806290420BD0A2F5A6
:104A60009832904207D002F58062904203D002F55E
:104A70008062904203D123F44073CA68134323F049
:104A800080034A6913438A68C2620A688262084ADC
:104A9000904203D002F58062904201D10A6902631C
:104AA000026842F004020260012242610360704722
:104AB0000000014040B310B5044690F83D30F3B11A
:104AC000022384F83D30214651F8040BFFF78AFF9A
:104AD000012384F8463084F83E3084F83F3084F86F
:104AE000403084F8413084F8423084F8433084F810
:104AF000443084F8453084F83D30002010BD80F803
:104B00003C3005F017FBDBE70120704740B310B5E0
:104B1000044690F83D30F3B1022384F83D3021463D
:104B200051F8040BFFF75EFF012384F8463084F848
:104B30003E3084F83F3084F8403084F8413084F8C7
:104B4000423084F8433084F8443084F8453084F8A7
:104B50003D30002010BD80F83C30FFF78FFEDBE7D2
:104B60000120704730B4036A026A22F01002026228
:104B70004468826922F4E6420D6842EA052223F085
:104B800020038D6843EA0513114DA84203D005F5B3
:104B90008065A84206D123F08003CD6843EA05135F
:104BA00023F040030A4DA84203D005F58065A842D2
:104BB00007D124F440644D6944EA85048D6944EAD0
:104BC0008504446082614A688263036230BC704736
:104BD0000000014038B590F83C30012B66D0044607
:104BE0000D46012380F83C300C2A5AD8DFE802F049
:104BF000075959591B595959305959594400006896
:104C0000FFF730FD2268936943F00803936122683F
:104C1000936923F0040393612268936929690B4324
:104C2000936100203EE00068FFF79CFF22689369D3
:104C300043F4006393612268936923F48063936172
:104C400022689369296943EA01239361002029E0DE
:104C50000068FFF73FFD2268D36943F00803D36182
:104C60002268D36923F00403D3612268D3692969D8
:104C70000B43D361002015E00068FFF763FD226855
:104C8000D36943F40063D3612268D36923F480635A
:104C9000D3612268D369296943EA0123D3610020E3
:104CA00000E00120002384F83C3038BD0220FCE7FE
:104CB00010B4846824F47F4C42EA03220A4342EA97
:104CC0000C0282605DF8044B704790F83C30012B79
:104CD00078D010B50446012380F83C30022380F8D8
:104CE0003D300268936823F47F4323F07703936099
:104CF0000B68602B4CD023D8402B54D011D8202BDC
:104D000003D00AD80BB1102B05D119462068FFF744
:104D100068FD002028E0012026E0302BF5D001209E
:104D200022E0502B0AD1CA6849680068FFF732FDBB
:104D300050212068FFF755FD002015E0012013E009
:104D4000B3F5805F3AD0B3F5005F14D0702B37D144
:104D5000CB684A6889680068FFF7AAFF22689368F1
:104D600043F0770393600020012384F83D30002353
:104D700084F83C3010BDCB684A6889680068FFF74A
:104D800097FF2268936843F4804393600020EBE729
:104D9000CA6849680068FFF710FD60212068FFF7C6
:104DA00020FD0020E0E7CA6849680068FFF7F2FCD0
:104DB00040212068FFF715FD0020D5E70020D3E74C
:104DC0000120D1E70220704701F01F014FF0010CD4
:104DD0000CFA01FC036A23EA0C030362036A8A40AB
:104DE000134303627047000010B5044608460029CB
:104DF00042D194F83E30DBB2013B18BF0123002BB7
:104E00006ED1002851D1022384F83E3001220146A0
:104E10002068FFF7D9FF2368334A934203D002F595
:104E20008062934203D15A6C42F400425A64236870
:104E30002D4A934249D0B3F1804F46D0A2F57C422F
:104E4000934242D002F5806293423ED002F58062E6
:104E500093423AD002F57842934236D002F570522E
:104E6000934232D0A2F5943293422ED01A6842F087
:104E700001021A60002032E0042908D008290DD070
:104E800094F84130DBB2013B18BF0123B7E794F837
:104E90003F30DBB2013B18BF0123B0E794F840304C
:104EA000DBB2013B18BF0123A9E7042805D008287D
:104EB00007D0022384F84130A8E7022384F83F306A
:104EC000A4E7022384F84030A0E79A6802F00702C2
:104ED000062A07D01A6842F001021A60002010BDAD
:104EE0000120FCE70020FAE70000014090F83C2098
:104EF000012A3DD010B40346012280F83C20022252
:104F000080F83D2002685068946820F0700C0868B2
:104F100040EA0C0050601A68164882421AD0B2F17A
:104F2000804F17D0A0F57C40824213D000F58060FE
:104F300082420FD000F5806082420BD000F57840AD
:104F4000824207D000F57050824203D0A0F5943021
:104F5000824204D124F080044968214391600122F7
:104F600083F83D20002083F83C005DF8044B704737
:104F70000220704700000140024690F83C30012BAF
:104F800021D0012380F83C30CB6823F4407388683B
:104F9000034323F480634868034323F400630868F1
:104FA000034323F480530869034323F400534869FF
:104FB000034323F48043C9690B4311684B64002009
:104FC00082F83C00704702207047704770470268C3
:104FD00002F10C0353E8003F23F490730C3242E8D3
:104FE00000310029F3D1026802F1140353E8003FB5
:104FF00023F00103143242E800310029F3D1036B9E
:10500000012B05D0202380F8423000230363704732
:10501000026802F10C0353E8003F23F010030C3246
:1050200042E800310029F3D1ECE790F84130DBB2DF
:10503000212B01D0022070478368B3F5805F17D021
:10504000036A5A1C02621A7803685A60C38C9BB2C6
:10505000013B9BB2C3844BB90268D36823F0800341
:10506000D3600268D36843F04003D36000207047E8
:105070000369002BE4D1036A1B880268C3F30803A9
:105080005360036A02330362E0E7000010B5044690
:105090000268136923F44053C1680B4313618368AA
:1050A00002691A4343691A43C3691A430168CB680A
:1050B00023F4164323F00C031343CB6002685369B7
:1050C00023F4407381690B4353610368314A93426F
:1050D00006D002F58062934202D0FEF7F3FE01E0B3
:1050E000FEF700FFE369B3F5004F29D00021031854
:1050F00049411B1841F10001C90041EA5371DB002D
:10510000181863684FEA83024FEA937341F1000174
:10511000FBF7FCFC204AA2FB00314909642303FB96
:1051200011031B013233A2FB03235B0903F0F002DE
:1051300002EB011203F00F03216813448B6010BDD2
:105140000023021843EB0301121841F10001C900CA
:1051500041EA5271D200101841F1000162689218C0
:105160005B41FBF7D3FC0C4AA2FB003149096423E5
:1051700003FB1103DB003233A2FB03235B095A005C
:1051800002F4F87202EB011203F0070321681344E2
:105190008B60D4E7001001401F85EB5160B310B560
:1051A000044690F8413013B3242384F84130226838
:1051B000D36823F40053D3602046FFF767FF2268CB
:1051C000136923F4904313612268536923F02A037F
:1051D00053612268D36843F40053D36000206064B5
:1051E000202384F8413084F84230606310BD80F899
:1051F000403005F0A7FBD7E701207047704708B59E
:105200000168CA6822F04002CA60202280F841206A
:10521000FFF7F4FF002008BD7047704708B5806BAA
:105220000023C385FFF7F9FF08BD704790F84230AF
:10523000DBB2222B69D18368B3F5805F4FD0826ADD
:10524000B3F5805F04D0002B56D10369002B53D1F6
:1052500003685B681370836A01338362C38D9BB2FA
:10526000013B9BB2C385002B51D100B583B00268CE
:10527000D36823F02003D3600268D36823F48073DB
:10528000D3600268536923F001035361202380F83F
:10529000423000234363036B012B33D100230363AC
:1052A000026802F10C0353E8003F23F010030C32B4
:1052B00042E800310029F3D103681A6812F0100F98
:1052C00006D0002201921A6801925B680193019B4B
:1052D000818DFFF7AAFF002003B05DF804FB02698F
:1052E000002AACD1826A03685B68C3F308031380A9
:1052F000836A02338362B1E703685B6803F07F036C
:105300001370A8E7FFF788FFE5E702207047002049
:105310007047000010B582B0044602681368D06878
:10532000516913F00F0F09D113F0200F0CD010F0BA
:10533000200F09D02046FFF779FF16E011F0010198
:1053400015D110F4907F12D1216B012979D013F07F
:10535000800F03D010F0800F40F0218113F0400F38
:1053600003D010F0400F40F01E8102B010BD13F0CA
:10537000010F06D010F4807F03D0626C42F001026E
:10538000626413F0040F04D019B1626C42F002029F
:10539000626413F0020F04D019B1626C42F004028F
:1053A000626413F0080F07D010F0200F00D119B17C
:1053B000626C42F008026264626C002AD5D013F07D
:1053C000200F02D010F0200F29D123685B6903F071
:1053D0004003626C12F0080F00D163B32046FFF760
:1053E000F6FD23685B6913F0400F20D0226802F1BC
:1053F000140353E8003F23F04003143242E8003125
:105400000029F3D1E36B73B1694A1A65E06BFCF7CD
:1054100075FC0028A9D0E06B036D9847A5E72046EE
:10542000FFF704FFD1E72046FFF7F7FE9DE7204690
:10543000FFF7F3FE99E72046FFF7EFFE00236364D2
:1054400093E713F0100F82D010F0100F3FF47FAFEE
:10545000002301931368019353680193019B5369DF
:1054600013F0400F5FD0E26B13685B689BB2002BB8
:105470004AD0A18D994247D9E385D369B3F5807F9E
:1054800037D0226802F10C0353E8003F23F4807305
:105490000C3242E800310029F3D1226802F11403F2
:1054A00053E8003F23F00103143242E800310029A1
:1054B000F3D1226802F1140353E8003F23F04003C4
:1054C000143242E800310029F3D1202384F842301D
:1054D00000232363226802F10C0353E8003F23F00A
:1054E00010030C3242E800310029F3D1E06BFCF7E5
:1054F000BBFB02236363A18DE38D9BB2C91A89B202
:105500002046FFF792FE30E7A18D99427FF42DAF40
:10551000D369B3F5807F7FF428AF0223636320460D
:10552000FFF783FE21E7A18DE38D9BB2C91A89B2F3
:10553000E38D9BB2002B3FF418AF00293FF415AF69
:10554000226802F10C0353E8003F23F490730C32FD
:1055500042E800300028F3D1226802F1140353E836
:10556000003F23F00103143242E800300028F3D159
:10557000202384F8423000232363226802F10C03C5
:1055800053E8003F23F010030C3242E800300028BB
:10559000F3D1022363632046FFF747FEE5E620468A
:1055A000FFF743FDE1E62046FFF729FEDDE600BFF9
:1055B0001D52000882B000230193019B0133019327
:1055C000019BB3F1706F1CD80369002BF5DA0A2335
:1055D000019302E0019B013B0193019B002BF9D158
:1055E000036943F001030361019B01330193019BB4
:1055F000B3F1706F08D8036913F0010FF4D10020E4
:1056000000E0032002B070470320FBE784B010B530
:10561000044603A880E80E009DF81130012B21D12B
:10562000A36B23F48033A363E36823F4840323F0A0
:105630004003E360E36823F44013E3609DF818300F
:10564000012B0AD02046FFF7B5FF9DF80E30012B45
:105650001CD0BDE8104004B07047E36843F48013E9
:10566000E360EFE7E36843F04003E3602046FFF7C1
:10567000A1FF9DF8153023B9A36B43F48033A363D6
:10568000E3E7A36B23F48033A363DEE7A36843F06F
:105690000603A360A36843F02003A360D9E70000DA
:1056A000022A0AD00922C36823F47053C360C36876
:1056B00043EA8223C36000207047234B0B44234AF4
:1056C00093422FD9224B0B44224A93422CD9A1F565
:1056D0007403A3F51053204A934227D9A1F1837391
:1056E000A3F5E7431D4A934222D31D4B0B441D4AA9
:1056F00093421FD91C4B0B441C4A93421CD31C4B96
:105700000B441C4A934219D3A1F1B773A3F5585324
:10571000194A934214D3194B0B44194A934211D29C
:105720000722C0E70F22BEE70E22BCE70D22BAE730
:105730000C22B8E70B22B6E70A22B4E70922B2E747
:105740000822B0E70622AEE7405327FFFF340C00E3
:10575000401E1BFF3F420F007F4F120020D6130058
:1057600060B6E5FE5FE3160000D3CEFE40771B0077
:10577000C05BB3FEC091210020753800E05459FE93
:10578000E09C4100836843F0010383600020704780
:10579000836823F0010383600020704782B00023F8
:1057A0000193019B01330193019BB3F1706F15D8F5
:1057B0000369002BF5DA00230193890141F02001F0
:1057C0000161019B01330193019BB3F1706F08D814
:1057D000036913F0200FF4D1002000E0032002B091
:1057E00070470320FBE782B000230193019B013344
:1057F0000193019BB3F1706F13D80369002BF5DAA5
:105800000023019310230361019B01330193019B4A
:10581000B3F1706F08D8036913F0100FF4D10020B2
:1058200000E0032002B070470320FBE7D0F8003807
:105830001943C0F8001800207047000084B0F8B584
:10584000044607A880E80E00002306E003F14002AA
:1058500004EB82020021516001330E2BF6D99DF832
:10586000266006BBD4F8043843F00203C4F80438B9
:10587000A36B43F40013A363A36B23F40023A3637C
:10588000A36B23F48023A3630023C4F8003E9DF898
:105890002130012B15D19DF81F306BB90021204616
:1058A000FFF7C4FF11E0A36B23F40013A363A36B02
:1058B00043F40023A363E7E701212046FFF7B6FF87
:1058C00003E003212046FFF7B1FF10212046FFF738
:1058D00065FF054600B101252046FFF784FF00B1B2
:1058E000012504F5006C0023CCF81030CCF81430FE
:1058F000CCF81C300AE0CBB94FF00060C2F80009C8
:1059000000220A614FF67F328A6001339DF81C1035
:10591000994210D904EB431202F51061D2F8000944
:105920000028E8DB0020C2F80009E9E74FF09040CA
:10593000C2F80009E4E700230AE0BBB14FF090474A
:10594000C2F8007B002202614FF67F328260013391
:10595000994210D904EB431202F53060D2F8007B73
:10596000002FEADB0027C2F8007BEBE74FF000676F
:10597000C2F8007BE6E7DCF8103023F48073CCF843
:1059800010300023A3616FF0804363619DF81E30E7
:105990001BB9A36943F01003A361A2690B4B134326
:1059A000A3619DF822301BB1A36943F00803A361F2
:1059B000012E04D02846BDE8F84004B07047A36922
:1059C00043F0804343F00403A361F3E700383C80D5
:1059D000D0F8083803F00603022B04D0062B04D0BD
:1059E0002BB90020704702207047022070470F201B
:1059F000704710B591F800C04B78012B23D000F50B
:105A0000006ED0F81C380CF00F040122A24043EACB
:105A10000243C0F81C3800EB4C10D0F8003B13F4E4
:105A2000004F0ED1D0F8003B8A68C2F30A02097910
:105A300042EA8142134343F0805343F40043C0F8E9
:105A4000003B002010BDD0F81C280CF00F0E03FA0C
:105A50000EF39BB21343C0F81C3800EB4C10D0F887
:105A6000003913F4004FECD1D0F800398A68C2F342
:105A70000A02097942EA814242EA8C52134343F016
:105A8000805343F40043C0F80039DAE730B40B78B0
:105A90004A78012A26D000EB4313D3F8002B002AC2
:105AA00052DBD0F83C480A7802F00F024FF0010CAC
:105AB0000CFA02F224EA0242C0F83C28D0F81C2872
:105AC000097801F00F010CFA01FC22EA0C42C0F83F
:105AD0001C28D3F8001B234A0A40C3F8002B0020DF
:105AE00030BC704700EB4313D3F80029002A1EDBBB
:105AF000D0F83C580A7802F00F02012404FA02F2AE
:105B000092B225EA0202C0F83C28D0F81C28097895
