:020000040800F2
:100000000000022021CB000865BA000867BA00088A
:1000100069BA00086BBA00086DBA00080000000059
:10002000000000000000000000000000418E0008F9
:100030006FBA000800000000E18E0008458F00083C
:1000400071CB000871CB000871CB000871CB0008A0
:1000500071CB000871CB000871BA000871CB0008A1
:1000600071CB00087BBA000885BA000871CB000884
:1000700071CB000871CB000871CB000871CB000870
:1000800071CB000871CB000871CB000871CB000860
:1000900091BA0008A1BA000871CB0008B1BA0008F3
:1000A00071CB000871CB000871CB000871CB000840
:1000B00071CB000871CB000871CB000871CB000830
:1000C00071CB000871CB000871CB000871CB000820
:1000D00071CB0008BDBA000871CB0008050A010801
:1000E00071CB000871CB000871CB000871CB000800
:1000F00071CB000871CB000871CB000801E2000849
:1001000071CB000871CB000871CB000871CB0008DF
:1001100071CB000871CB0008CDBA000871CB000884
:1001200071CB0008DDBA000841D1000871CB00088E
:1001300071CB000871CB000871CB000871CB0008AF
:10014000EDBA000871CB000871CB0008FDBA0008B9
:100150000DBB00081DBB00082DBB000871CB0008BB
:1001600071CB000871CB000871CB000871CB00087F
:1001700071CB000871CB000871CB000800000000B3
:0801800071CB000871CB0008EF
:1001C0000348044B834202D0034B03B118477047E6
:1001D000F8090020F8090020000000000548064941
:1001E0000B1AD90F01EBA301491002D0034B03B145
:1001F00018477047F8090020F809002000000000A7
:1002000010B5064C237843B9FFF7DAFF044B13B15E
:100210000448AFF300800123237010BDF8090020CB
:10022000000000002017010808B5044B1BB1044969
:100230000448AFF30080BDE80840CFE700000000AD
:10024000FC0900202017010881F0004102E000BFF6
:1002500083F0004330B54FEA41044FEA430594EA86
:10026000050F08BF90EA020F1FBF54EA000C55EAC1
:10027000020C7FEA645C7FEA655C00F0E2804FEA92
:100280005454D4EB5555B8BF6D420CDD2C4480EA74
:10029000020281EA030382EA000083EA010180EAA4
:1002A000020281EA0303362D88BF30BD11F0004FF2
:1002B0004FEA01314FF4801C4CEA113102D0404228
:1002C00061EB410113F0004F4FEA03334CEA133363
:1002D00002D0524263EB430394EA050F00F0A7807B
:1002E000A4F10104D5F1200E0DDB02FA0EFC22FA76
:1002F00005F2801841F1000103FA0EF2801843FA6A
:1003000005F359410EE0A5F120050EF1200E012A5A
:1003100003FA0EFC28BF4CF0020C43FA05F3C01898
:1003200051EBE37101F0004507D54FF0000EDCF111
:10033000000C7EEB00006EEB0101B1F5801F1BD3BA
:10034000B1F5001F0CD349085FEA30004FEA3C0CBE
:1003500004F101044FEA445212F5800F80F09A80B4
:10036000BCF1004F08BF5FEA500C50F1000041EBB8
:10037000045141EA050130BD5FEA4C0C404141EBBC
:100380000101013C28BFB1F5801FE9D291F0000FB7
:1003900004BF01460020B1FA81F308BF2033A3F166
:1003A0000B03B3F120020CDA0C3208DD02F1140C5D
:1003B000C2F10C0201FA0CF021FA02F10CE002F198
:1003C0001402D8BFC2F1200C01FA02F120FA0CFC91
:1003D000DCBF41EA0C019040E41AA2BF01EB0451DA
:1003E000294330BD6FEA04041F3C1CDA0C340EDCD8
:1003F00004F11404C4F1200220FA04F001FA02F31B
:1004000040EA030021FA04F345EA030130BDC4F1D8
:100410000C04C4F1200220FA02F001FA04F340EACD
:100420000300294630BD21FA04F0294630BD94F07E
:10043000000F83F4801306BF81F480110134013D65
:100440004EE77FEA645C18BF7FEA655C29D094EAD6
:10045000050F08BF90EA020F05D054EA000C04BF54
:100460001946104630BD91EA030F1EBF002100203F
:1004700030BD5FEA545C05D14000494128BF41F0DE
:10048000004130BD14F580043CBF01F5801130BD42
:1004900001F0004545F0FE4141F470014FF00000CD
:1004A00030BD7FEA645C1ABF194610467FEA655C7E
:1004B0001CBF0B46024650EA013406BF52EA033520
:1004C00091EA030F41F4002130BD00BF90F0000F0E
:1004D00004BF0021704730B54FF4806404F132044A
:1004E0004FF000054FF0000150E700BF90F0000F03
:1004F00004BF0021704730B54FF4806404F132042A
:1005000010F0004548BF40424FF000013EE700BFF9
:1005100042004FEAE2014FEA31014FEA02701FBF89
:1005200012F07F4393F07F4F81F06051704732F0BB
:100530007F4208BF704793F07F4F04BF41F4002112
:10054000704730B54FF4607401F0004521F0004170
:100550001CE700BF50EA010208BF704730B54FF0FA
:1005600000050AE050EA010208BF704730B511F0FB
:10057000004502D5404261EB41014FF4806404F133
:1005800032045FEA915C3FF4D8AE4FF003025FEAB9
:10059000DC0C18BF03325FEADC0C18BF033202EB3D
:1005A000DC02C2F1200300FA03FC20FA02F001FA97
:1005B00003FE40EA0E0021FA02F11444BDE600BF3A
:1005C00070B54FF0FF0C4CF4E06C1CEA11541DBFE9
:1005D0001CEA135594EA0C0F95EA0C0F00F0DEF8B4
:1005E0002C4481EA030621EA4C5123EA4C5350EA99
:1005F000013518BF52EA033541F4801143F48013EA
:1006000038D0A0FB02CE4FF00005E1FB02E506F07A
:100610000042E0FB03E54FF00006E1FB03569CF0CF
:10062000000F18BF4EF0010EA4F1FF04B6F5007FD5
:1006300064F5407404D25FEA4E0E6D4146EB060647
:1006400042EAC62141EA55514FEAC52040EA5E50D0
:100650004FEACE2EB4F1FD0C88BFBCF5E06F1ED87A
:10066000BEF1004F08BF5FEA500E50F1000041EBB1
:10067000045170BD06F0004646EA010140EA02005E
:1006800081EA0301B4EB5C04C2BFD4EB0C0541EA80
:10069000045170BD41F480114FF0000E013C00F395
:1006A000AB8014F1360FDEBF002001F0004170BDB9
:1006B000C4F10004203C35DA0C341BDC04F11404D2
:1006C000C4F1200500FA05F320FA04F001FA05F25E
:1006D00040EA020001F0004221F0004110EBD3702B
:1006E00021FA04F642EB06015EEA430E08BF20EA57
:1006F000D37070BDC4F10C04C4F1200500FA04F3FA
:1007000020FA05F001FA04F240EA020001F000418B
:1007100010EBD37041F100015EEA430E08BF20EAFE
:10072000D37070BDC4F1200500FA05F24EEA020E46
:1007300020FA04F301FA05F243EA020321FA04F075
:1007400001F0004121FA04F220EA020000EBD3702C
:100750005EEA430E08BF20EAD37070BD94F0000F2C
:100760000FD101F00046400041EB010111F4801F60
:1007700008BF013CF7D041EA060195F0000F18BF11
:10078000704703F00046520043EB030313F4801F4D
:1007900008BF013DF7D043EA0603704794EA0C0F07
:1007A0000CEA135518BF95EA0C0F0CD050EA41061D
:1007B00018BF52EA4306D1D181EA030101F000419A
:1007C0004FF0000070BD50EA410606BF10461946C2
:1007D00052EA430619D094EA0C0F02D150EA0136CE
:1007E00013D195EA0C0F05D152EA03361CBF10460F
:1007F00019460AD181EA030101F0004141F0FE41AE
:1008000041F470014FF0000070BD41F0FE4141F431
:10081000780170BD70B54FF0FF0C4CF4E06C1CEA31
:1008200011541DBF1CEA135594EA0C0F95EA0C0FE6
:1008300000F0A7F8A4EB050481EA030E52EA0335A1
:100840004FEA013100F088804FEA03334FF08055C2
:1008500045EA131343EA12634FEA022245EA1115EF
:1008600045EA10654FEA00260EF000419D4208BFA0
:10087000964244F1FD0404F5407402D25B084FEA4D
:100880003202B61A65EB03055B084FEA32024FF4F9
:1008900080104FF4002CB6EB020E75EB030E22BF56
:1008A000B61A754640EA0C005B084FEA3202B6EB16
:1008B000020E75EB030E22BFB61A754640EA5C00C5
:1008C0005B084FEA3202B6EB020E75EB030E22BF55
:1008D000B61A754640EA9C005B084FEA3202B6EB56
:1008E000020E75EB030E22BFB61A754640EADC0015
:1008F00055EA060E18D04FEA051545EA16754FEA77
:1009000006164FEAC30343EA52734FEAC2025FEA94
:100910001C1CC0D111F4801F0BD141EA00014FF023
:1009200000004FF0004CB6E711F4801F04BF0143F4
:100930000020B4F1FD0C88BFBCF5E06F3FF6AFAE10
:10094000B5EB030C04BFB6EB020C5FEA500C50F1A0
:10095000000041EB045170BD0EF0004E4EEA113123
:1009600014EB5C04C2BFD4EB0C0541EA045170BD2A
:1009700041F480114FF0000E013C90E645EA060E6E
:100980008DE60CEA135594EA0C0F08BF95EA0C0F9C
:100990003FF43BAF94EA0C0F0AD150EA01347FF4E4
:1009A00034AF95EA0C0F7FF425AF104619462CE7BB
:1009B00095EA0C0F06D152EA03353FF4FDAE10461E
:1009C000194622E750EA410618BF52EA43067FF46F
:1009D000C5AE50EA41047FF40DAF52EA43057FF4FF
:1009E000EBAE12E74FF0FF3C06E000BF4FF0010C0A
:1009F00002E000BF4FF0010C4DF804CD4FEA410C6E
:100A00007FEA6C5C4FEA430C18BF7FEA6C5C1BD03A
:100A100001B050EA410C0CBF52EA430C91EA030FBB
:100A200002BF90EA020F0020704710F1000F91EA18
:100A3000030F58BF994208BF90422CBFD8176FEAE6
:100A4000E37040F0010070474FEA410C7FEA6C5CB4
:100A500002D150EA013C07D14FEA430C7FEA6C5CBB
:100A6000D6D152EA033CD3D05DF8040B704700BFE7
:100A70008446104662468C461946634600E000BF35
:100A800001B5FFF7B7FF002848BF10F1000F01BD07
:100A90004DF808EDFFF7F4FF0CBF012000205DF8D2
:100AA00008FB00BF4DF808EDFFF7EAFF34BF012057
:100AB00000205DF808FB00BF4DF808EDFFF7E0FFF0
:100AC00094BF012000205DF808FB00BF4DF808ED41
:100AD000FFF7CEFF94BF012000205DF808FB00BFA8
:100AE0004DF808EDFFF7C4FF34BF012000205DF88A
:100AF00008FB00BF4FEA4102B2F1E04324BFB3F567
:100B0000001CDCF1FE5C0DD901F0004C4FEAC00284
:100B10004CEA5070B2F1004F40EB830008BF20F068
:100B20000100704711F0804F21D113F13872BCBF22
:100B300001F00040704741F480114FEA5252C2F177
:100B40001802C2F1200C10FA0CF320FA02F018BFC0
:100B500040F001004FEAC1234FEAD32303FA0CFC13
:100B600040EA0C0023FA02F34FEA4303CCE77FEAA2
:100B7000625307D150EA01331EBF4FF0FE4040F4EC
:100B80004000704701F0004040F0FE4040F400009B
:100B9000704700BF53B94AB9002908BF00281CBFDD
:100BA0004FF0FF314FF0FF3000F074B9ADF1080C99
:100BB0006DE904CE00F006F8DDF804E0DDE902237B
:100BC00004B070472DE9F047089D04468E46002B7F
:100BD0004DD18A42944669D9B2FA82F252B101FAF1
:100BE00002F3C2F1200120FA01F10CFA02FC41EA01
:100BF000030E94404FEA1C48210CBEFBF8F61FFA86
:100C00008CF708FB16E341EA034306FB07F1994220
:100C10000AD91CEB030306F1FF3080F01F819942D3
:100C200040F21C81023E63445B1AA4B2B3FBF8F0AD
:100C300008FB103344EA034400FB07F7A7420AD934
:100C40001CEB040400F1FF3380F00A81A74240F25C
:100C500007816444023840EA0640E41B00261DB1C7
:100C6000D4400023C5E900433146BDE8F0878B42FC
:100C700009D9002D00F0EF800026C5E900013046BB
:100C80003146BDE8F087B3FA83F6002E4AD18B4295
:100C900002D3824200F2F980841A61EB030301203F
:100CA0009E46002DE0D0C5E9004EDDE702B9FFDE2B
:100CB000B2FA82F2002A40F09280A1EB0C014FEAD6
:100CC0001C471FFA8CFE0126200CB1FBF7F307FB33
:100CD000131140EA01410EFB03F0884208D91CEBD6
:100CE000010103F1FF3802D2884200F2CB80434673
:100CF000091AA4B2B1FBF7F007FB101144EA014452
:100D00000EFB00FEA64508D91CEB040400F1FF31E0
:100D100002D2A64500F2BB800846A4EB0E0440EACE
:100D200003409CE7C6F12007B34022FA07FC4CEAD7
:100D3000030C20FA07F401FA06F31C43F9404FEACA
:100D40001C4900FA06F3B1FBF9F8200C1FFA8CFEDF
:100D500009FB181140EA014108FB0EF0884202FA33
:100D600006F20BD91CEB010108F1FF3A80F08880F4
:100D7000884240F28580A8F102086144091AA4B2B1
:100D8000B1FBF9F009FB101144EA014100FB0EFE32
:100D90008E4508D91CEB010100F1FF346CD28E4561
:100DA0006AD90238614440EA0840A0FB0294A1EBF2
:100DB0000E01A142C846A64656D353D05DB1B3EB4F
:100DC000080261EB0E0101FA07F722FA06F3F1407F
:100DD0001F43C5E9007100263146BDE8F087C2F126
:100DE0002003D8400CFA02FC21FA03F3914001439E
:100DF0004FEA1C471FFA8CFEB3FBF7F007FB1036D7
:100E00000B0C43EA064300FB0EF69E4204FA02F482
:100E100008D91CEB030300F1FF382FD29E422DD9D5
:100E2000023863449B1B89B2B3FBF7F607FB16330A
:100E300041EA034106FB0EF38B4208D91CEB01018A
:100E400006F1FF3816D28B4214D9023E6144C91A0A
:100E500046EA004638E72E46284605E70646E3E61A
:100E60001846F8E64B45A9D2B9EB020864EB0C0E24
:100E70000138A3E74646EAE7204694E74046D1E733
:100E8000D0467BE7023B614432E7304609E76444E1
:100E9000023842E7704700BF002200F001B800BFEF
:100EA00070B4840746D04C1E002941D0D5B2034609
:100EB00002E0611EE4B30C4603F8015B9907F8D128
:100EC000032C2ED9D5B245EA05250F2C45EA054558
:100ED00019D9264603F11001103E0F2E41F8105C7F
:100EE00041F80C5C41F8085C41F8045C01F1100128
:100EF000F2D8A4F1100121F00F0104F00F04103119
:100F0000032C0B440DD91E4621460439032946F80B
:100F1000045BFAD8211F21F0030104310B4404F0D3
:100F200003042CB1D2B21C4403F8012BA342FBD121
:100F300070BC70470C460346C2E700000023014620
:100F40001A46184600F02ABA014B1868704700BFCD
:100F50001000002038B5084B084D5B1B9C1007D0D3
:100F6000043B1D44013C55F804399847002CF9D145
:100F7000BDE8384010F0DABBC4310108C0310108C7
:100F800070B50D4E0D4D761BB61006D0002455F8E9
:100F9000043B01349847A642F9D1094E094D761B0E
:100FA00010F0BEFBB61006D0002455F8043B013407
:100FB0009847A642F9D170BDB8310108B83101088F
:100FC000C0310108B8310108844641EA000313F03A
:100FD00003036DD1403A41D351F8043B40F8043B40
:100FE00051F8043B40F8043B51F8043B40F8043B03
:100FF00051F8043B40F8043B51F8043B40F8043BF3
:1010000051F8043B40F8043B51F8043B40F8043BE2
:1010100051F8043B40F8043B51F8043B40F8043BD2
:1010200051F8043B40F8043B51F8043B40F8043BC2
:1010300051F8043B40F8043B51F8043B40F8043BB2
:1010400051F8043B40F8043B51F8043B40F8043BA2
:1010500051F8043B40F8043B403ABDD2303211D342
:1010600051F8043B40F8043B51F8043B40F8043B82
:1010700051F8043B40F8043B51F8043B40F8043B72
:10108000103AEDD20C3205D351F8043B40F8043B42
:10109000043AF9D2043208D0D2071CBF11F8013B40
:1010A00000F8013B01D30B8803806046704700BF06
:1010B000082A13D38B078DD010F003038AD0C3F115
:1010C0000403D21ADB071CBF11F8013B00F8013BF7
:1010D00080D331F8023B20F8023B7BE7043AD9D3B6
:1010E000013A11F8013B00F8013BF9D20B7803708B
:1010F0004B7843708B78837060467047830730B5B8
:1011000048D0541E002A3FD0CAB2034601E0013C39
:101110003AD303F8012B9D07F9D1032C2DD9CDB279
:1011200045EA05250F2C45EA054536D9A4F11002FC
:1011300022F00F0C03F1200EE6444FEA121C03F1DB
:10114000100242E9045542E9025510327245F8D1C5
:101150000CF1010214F00C0F03EB021204F00F0C5F
:1011600013D0ACF1040323F003030433134442F817
:10117000045B9342FBD10CF003042CB1CAB21C44B3
:1011800003F8012B9C42FBD130BD64461346002C72
:10119000F4D1F9E703461446BFE71A46A446E0E750
:1011A000704700BF704700BF2DE9F0410E680C4644
:1011B0000546BEB137688FB1D7F80080B8F1000F8F
:1011C00008D0D8F8001009B1FFF7EEFF41462846D5
:1011D00000F068F93946284600F064F9314628469F
:1011E00000F060F921462846BDE8F04100F05AB908
:1011F000224B1B68834240D0C16C70B5054681B15B
:1012000000268C593CB121462468284600F04AF952
:10121000002CF8D1E96C0436802EF2D1284600F07B
:1012200041F9296C11B1284600F03CF9D5F8484144
:1012300054B105F5A676B44206D021462468284666
:1012400000F030F9A642F8D1696D11B1284600F0DE
:1012500029F9AB6B83B1EB6B28469847D5F8E04290
:1012600054B1216811B12846FFF79EFF2146284658
:10127000BDE8704000F016B970BD70471000002046
:1012800038B5074D0022044608462A600AF056FC8D
:10129000431C00D038BD2B68002BFBD0236038BD29
:1012A000480A0020000000000000000000000000CC
:1012B000000000000000000000000000000000002E
:1012C00090F800F06DE9024520F007016FF0000C86
:1012D00010F0070491F820F040F049804FF000042E
:1012E0006FF00700D1E9002391F840F000F1080009
:1012F00082FA4CF2A4FA8CF283FA4CF3A2FA8CF341
:101300004BBBD1E9022382FA4CF200F10800A4FAA7
:101310008CF283FA4CF3A2FA8CF3E3B9D1E90423FB
:1013200082FA4CF200F10800A4FA8CF283FA4CF332
:10133000A2FA8CF37BB9D1E9062301F1200182FAEC
:101340004CF200F10800A4FA8CF283FA4CF3A2FAF2
:101350008CF3002BC6D0002A04BF04301A4612BA00
:10136000B2FA82F2FDE8024500EBD2007047D1E903
:10137000002304F00305C4F100004FEAC50514F092
:10138000040F91F840F00CFA05F562EA05021CBF63
:1013900063EA050362464FF00004A9E770B4184CF5
:1013A0002568D5F848411CB365681F2D25DC38B980
:1013B000AB1C0135656044F82310002070BC7047F9
:1013C00004EB850C0228CCF88820D4F888614FF013
:1013D000010202FA05F246EA0206C4F88861CCF876
:1013E0000831E5D1D4F88C311343C4F88C31DFE7F0
:1013F00005F5A674C5F84841D6E74FF0FF30DDE7A4
:1014000078220108F8B5244F0C460646FFF7C8FEBF
:10141000BA685568C4F57E630F3325F003052B4485
:1014200023F47F6323F00F03A3F58054B4F5805FAA
:1014300007DB00213046FFF723FFBB682B449842AF
:1014400004D03046FFF7AEFE0020F8BD61423046C2
:10145000FFF716FF01300DD0104ABB682D1B45F079
:1014600001055D60136830461B1B1360FFF79AFE91
:101470000120F8BD00213046FFF702FFBA68831A49
:101480000F2BDEDD43F001035360054B03491B685E
:10149000C01A0860D5E700BF40040020180A0020E9
:1014A00048080020002961D0F8B50C460646FFF731
:1014B00077FE54F8042C7B4FA4F1080522F00101BB
:1014C00005EB010CB868DCF80430604523F0030339
:1014D00000F08B80D207CCF8043032D454F8082CBA
:1014E000AD1A1144AA6807F1080082426AD00CEBD9
:1014F0000304D4F804E0EC68D4601EF0010FA2608D
:1015000000F0978041F001036B60CCF80010B1F55A
:10151000007F35D27A68CB08480901210133814028
:101520001143796007EBC30257F83310083AC5E955
:10153000021247F83350CD603046BDE8F840FFF75F
:1015400031BE0CEB03025268D00710D4194407F1E6
:101550000800DCF80830834273D0DCF80C20DA6035
:10156000936041F001036B606950D0E7704741F030
:101570000103B1F5007F44F8043CCCF80010C9D356
:10158000B1F5206F4FEA512348D28B0903F139009E
:1015900003F13802C300F818FB580838984259D0B4
:1015A0005A6822F003028A4202D99B689842F7D116
:1015B000D868C5E902308560DD603046BDE8F84096
:1015C000FFF7F0BD0CEB03025268D20763D40B4463
:1015D000DCE90212CA60916043F001026A603046A1
:1015E000EB50BDE8F840FFF7DDBD0B44D10707D451
:1015F00054F8082CAD1A1344D5E90212CA60916060
:1016000043F001026A60284ABD6012689A4293D88A
:10161000264B30461968FFF7F5FE8DE7142B0AD9E3
:10162000542B1FD80B0B03F16F0003F16E02C300A4
:10163000B1E719448DE703F15C0003F15B02C300DD
:10164000A9E741F00103C7E90455C5E902006B6051
:10165000695071E779689210012404FA02F20A4392
:101660007A60A6E7B3F5AA7F06D8CB0B03F1780022
:1016700003F17702C3008EE740F25452934206D83A
:101680008B0C03F17D0003F17C02C30083E74FF470
:101690007E737E227FE741F001036B60CCF800107F
:1016A0004AE700BF400400204C080020140A002034
:1016B00010EE103A194A23F0004393421CDDB3F1B7
:1016C000FF4F02DB30EE400A704700B583B068463A
:1016D00000F032FA00F003000128DDED010A9DED73
:1016E000000A0ED0022813D070B100F05BFBB1EEFF
:1016F000400A03B05DF804FBDFED090A002000F0AA
:101700000DBF00F04FFBF4E7012000F007FFF0E70A
:10171000012000F003FFB1EE400AEAE7D80F493F8D
:101720000000000008B52DED028BB0EE408A00F0FD
:1017300057F8144B93F900300133F0EE408A0FD084
:10174000B4EE488AF1EE10FA0AD6B0EE480A01F07B
:1017500001F8F7EE007AB4EEE70AF1EE10FA04DCD5
:10176000B0EE680ABDEC028B08BDFFF7EDFBBDECE7
:10177000028B034621221A600348BDE8084001F0AD
:1017800037B800BF50080020BC26010800F02EB971
:1017900008B52DED028BB0EE408A00F0FFFA0E4B3B
:1017A00093F9003001330BD0B4EE488AF1EE10FA11
:1017B00006D6DFED0A8AB4EEE88AF1EE10FA02D41A
:1017C000BDEC028B08BDFFF7BFFB88EEA80ABDEC9D
:1017D000028B2123036008BD500800200000000098
:1017E00038B510EE105A25F00044B4F17E5F2DEDAF
:1017F000048B00F085807ADCB4F17C5F0FDAB4F101
:10180000485F80F29C80DFED697A70EE277AB7EE50
:10181000007AF4EEC77AF1EE10FA00F38D8000F052
:1018200099FFF7EE007A37EEC00AB6EE008A20EE96
:10183000088A9FED5F7ADFED5F6A9FED5F6A9FED3B
:101840005F5ADFED5F5ADFED5F8AE8EE076A9FEDD2
:101850005E7AA8EE067A9FED5D6AA6EE885AA7EE3C
:10186000086A9FED5B7ADFED5B6AE5EE085AA6EE4B
:10187000087AE5EE886AE7EE087AE6EE888AB0EE46
:10188000480AB0EE679A00F089FA534B9C4268EE22
:10189000888A42DC10EE103A23F47F6323F00F03B2
:1018A00006EE903AA6EEE68A70EE267A88EE895A1F
:1018B000C8EE274A9FED497ADFED497AB0EE006A1B
:1018C000A4EEC67A30EE000AF0EE675AE6EEC65A8B
:1018D00090EE057A37EE657A37EEC77A002D0ADC8E
:1018E000BDEC048BB1EE477AB0EE470A38BD70EE1E
:1018F000407A87EEA77ABDEC048BB0EE470A38BD7C
:101900009FED367ADFED377A20EE077ABDEC048B57
:10191000A0EE277AB0EE470A38BD88EE896A9FEDBF
:10192000327ADFED307AA0EE060AF0EE006AA0EE21
:10193000267A37EEC77AD1E7B0EE407ADBE760EE81
:10194000007A9FED1B7ADFED1B6A9FED1C6ADFEDCD
:101950001A5A9FED1B5AE7EE876ABDEC048BA6EE80
:10196000A76A9FED197ADFED196AA7EEA57AA6EEB0
:10197000275AE7EE276ADFED175A9FED156A9FEDAC
:10198000117AE5EE275AA6EEA76AA5EEA77AF7EE3A
:10199000006AE6EE276A67EE277AB0EE407A87EEB5
:1019A000A66AA0EE067AB0EE470A38BDCAF24971BF
:1019B00008EF1138047F4F3A2EC69D3D461124BDD5
:1019C000A80A4E3EABAA2A3E613330BF2D570140D4
:1019D00039D119C090B0A6BE9999793F2EBD3BB3BD
:1019E000DB0F493FDB0FC93F2EBD3B3310B582B043
:1019F000CDED010A019B23F00042B2F1FF4FF0EE62
:101A0000407A30DC10EE100A20F00041B1F1FF4FB7
:101A100029DCB3F17E5F42D09C1704F0020444EA53
:101A2000D07431B37AB3B2F1FF4F40D0B1F1FF4F70
:101A300029D08A1AB2F1F45F4FEAE25134DA002B6E
:101A400042DA3C3140DA9FED340A012C4ED0022CB0
:101A500043D064B19FED317ADFED317A30EE070A81
:101A600030EE670A03E09DED017A37EE270A02B0F7
:101A700010BD022C10D09FED2B0A032C18BFB0EE26
:101A8000670A02B010BD9FED280ADFED287A002812
:101A9000B8BFB0EE670AEAE79FED210AE7E702B0B8
:101AA000BDE8104000F082BD9FED1F0ACDE7B1F107
:101AB000FF4F04F1FF3420D0022C26D81C4B03EB3F
:101AC000840494ED030AD2E79DED017A87EE870A3C
:101AD00000F040FE00F06AFDB7E79FED107ADFED01
:101AE000107A30EE070A37EEC00AC0E710EE103A5F
:101AF00003F1004300EE103AB9E7022C08D80C4B72
:101B000003EB840494ED000AB1E79FED030AAEE70E
:101B10009FED080AABE700BF000000002EBDBB33FD
:101B2000DB0F4940DB0F49C0DB0FC93FDB0FC9BFEB
:101B30007C220108DB0F493F70B510EE103A894A4C
:101B400023F00044944286B0054670DD864A9442F4
:101B500010EE106A22DC002BDFED847A844A24F038
:101B60000F04B0EE407A40F3E480944270EE677A5E
:101B700009BFDFED806A9FED807A9FED807A77EE76
:101B8000E67A012077EEC76A77EEE67AC5ED006A5D
:101B900077EEC77AC5ED017A06B070BD784A9442F7
:101BA00054DDB4F1FF4F49DAE215863AA4EBC25393
:101BB00007EE903ABDEEE77ADFED726AB8EEC77ACB
:101BC00077EEC77A8DED037A67EEA67ABDEEE77AF7
:101BD000B8EEC77A77EEC77A8DED047A67EEA67A0B
:101BE000F5EE407AF1EE10FACDED057A40F09080F6
:101BF000B5EE407AF1EE10FA14BF022301236249D8
:101C000001910221009103A8294600F04DF9002E10
:101C1000C2DA95ED007AD5ED017AB1EE477AF1EEB0
:101C2000677A85ED007AC5ED017A4042B4E700227B
:101C300085ED000A4260002006B070BD70EE407A6B
:101C40000020C5ED017AC5ED007AA5E700F082FD20
:101C50009FED4E7A9FED456AF6EE007AE0EE077A48
:101C60009FED457AFDEEE77A17EE900AF8EEE76A07
:101C70001F28A6EEC60A66EE877AB1EE666A1EDCFB
:101C8000434A411E24F0FF0352F82120934216D00C
:101C900030EE677A85ED007A30EE470A002E30EE9E
:101CA000670A85ED010ABFF677AFB1EE477AB1EE6C
:101CB000400A85ED007A85ED010A40426CE730EE7E
:101CC000677AE21517EE103AC3F3C753C3EBD45447
:101CD000082CDFDDDFED277A9FED287AF0EE405A01
:101CE000E6EE275A30EE650AA6EE270AF0EE407AB5
:101CF000D6EE877A35EEE77A17EE103AC3F3C7537C
:101D0000D21A192A06DCB0EE650A85ED007AC3E71F
:101D1000032374E79FED1F7A9FED1F5AB0EE650A0B
:101D2000A6EE070A75EEC07AE6EE077AD6EE857A59
:101D3000AEE7944270EE277A09BFDFED0E6A9FEDA1
:101D40000E7A9FED0E7A77EEA67A4FF0FF3077EE9F
:101D5000876A77EEE67AC5ED006A77EE877AC5ED99
:101D6000017A19E7D80F493FE3CB1640800FC93FEE
:101D7000D00FC93F004435374344353708A3852E7B
:101D8000800F4943000080431423010884F9223F57
:101D90009422010800A3852E32318D24B1EEC00AB1
:101DA000704700BF10EE103A23F00043B3F1485FD4
:101DB0002CDAFDEEC07A17EE903A002B60D020EEC0
:101DC000007ADFED317A9FED315ADFED315A9FED28
:101DD000316ADFED316AA7EE275ADFED307AE7EEA0
:101DE000055AA7EE256AE7EE067AE7EE276A67EE60
:101DF000266A60EEC00AF6EE007AE7EE260AB7EE33
:101E0000000AD7EE270A30EE600A704720EE007A0B
:101E1000DFED1D7A9FED1D5ADFED1D5A9FED1D6A06
:101E2000DFED1D6A1E4AA7EE275A9342DFED1B7AAB
:101E3000E5EE075AA5EE876AE6EE077AE7EE876ACF
:101E400066EE876AD5DD174A934214DC03F17F43BF
:101E500007EE903AB7EE006A36EE676A60EEC00AA7
:101E6000F6EE005AD7EE257AE7EE260A77EEE00A7C
:101E700036EE600A7047B6EE076AF5EE027AEDE7D5
:101E8000B7EE000A704700BF4ED747ADF6740F316A
:101E90007CF293B4010DD037ABAA2A3D610BB6BAE0
:101EA0009999993E0000483F2DE9F04F2DED048BA4
:101EB000DBB01C4603930691A24B6899089253F835
:101EC0002150111D824604F1FF38C0F2A382D31EB7
:101ED00048BF131DDB1002930133DB000793DDE9DC
:101EE00007239B1A0593029B15EB0801A3EB08033C
:101EF00016D401319FED947A699819441EAA002BDB
:101F0000A4BF50F8234007EE904A03F10103ACBF91
:101F1000F8EEE77AF0EE477A8B42E2EC017AEED106
:101F2000002DC0F2E782039B1EAA02EB830446AE9B
:101F30004FEA830C4046EF180AEB8301B8F1000F1B
:101F4000DFED817A09DB22465346F3EC016A32ED7C
:101F5000017A8B42E6EE877AF7D10130B842E6EC9F
:101F6000017A04F10404E9D109AB0AAF03EB850956
:101F700007EB8503083B9FED769ADFED748A0598A1
:101F800004930AEB0C0446AE00955AAB03EB8503B1
:101F9000002D13ED140A4FEA850B16DD06EB8503C1
:101FA0003A4660EE097AB0EE407AFDEEE77A73EDDC
:101FB000016AF8EEE77AB342A7EEE87A37EEA60AAE
:101FC000BDEEC77AA2EC017AEBD1019000F016FCCD
:101FD000B0EE408AB4EE000A28EE000A00F0C2FB20
:101FE000F2EE007AA0EE678A01980028FDEEC89A0A
:101FF000F8EEE97A38EE678A79DD05F1FF3EC0F147
:10200000080357F82E1041FA03FC0CFA03F3CB1A1D
:10201000C0F1070219EE901A43FA02F26144002A55
:1020200047F82E3009EE901A69DCB5EE408AF1EEE1
:1020300010FA40F0C080009B05F1FF3B5B4510DCCF
:1020400005F18043013B07EB83030021944653F8DD
:1020500004294B4541EA0201F9D16246002940F0CA
:10206000F280009B013B57F82330002B40F0E780C3
:10207000049B4FF0010C53F804290CF1010C002AC9
:10208000F9D06B1CAC449E46039A5119029A02EB9C
:10209000030B0BF1804B699A0BF1FF3B06EB8305B9
:1020A0001EAB02EB8B0B03EB8101DBED017A9FEDA5
:1020B000267AF8EEE77AB8F1000F0BF1040BC1EDC8
:1020C000007A0A4601F1040109DB534601E072ED92
:1020D000017AF3EC016AA342A6EEA77AF7D10EF1DA
:1020E000010EE645A5EC017ADFDD65464DE740F0DF
:1020F0009C806B1E57F823201212002A95DD19EEE2
:10210000903A002D03F1010309EE903A40F39881D3
:10211000396800297FD1012D26D03B464FF0010CB4
:1021200053F8041F00297AD00CF10103C1F5807126
:102130009D4247F82C1016DD57F82310BB4407EBDF
:1021400083030AE02C260108000000000000804301
:102150000000803B0000C93F1968C1F1FF0143F84E
:10216000041B5B45F8D1012100280CDD012800F09B
:102170004881022807D105F1FF3C57F82C3003F0C5
:102180003F0347F82C30022A7FF44FAFB7EE000A26
:1021900030EE488A00293FF448AF0992019000F0E0
:1021A0002DFB38EE408A099A0198B5EE408AF1EE8F
:1021B00010FA3FF440AF0292DDE90732B0EE480A70
:1021C000981A0195009D00F019FB1FED207AB4EEDE
:1021D000C70AF1EE10FADDE90132C0F259815FED74
:1021E000247A059960EE277A0831FDEEE77A0591A9
:1021F000F8EEE77A03F1010BA7EEC70AFDEEE77AE6
:10220000BDEEC00A10EE101A47F8231017EE903AF0
:1022100047F82B302EE001234FF0000C86E70CF13D
:10222000010CAC457FF47CAF9EE7F6EE007AB4EE8D
:10223000E78AF1EE10FA80F2F2800022F5E66B1CDC
:102240009E469C4620E70599A1F1080057F82B10FF
:1022500005902B46009D69B903F18043023B07EBD3
:102260008303014653F804090BF1FF3B08390028AA
:10227000F8D0059105980092B7EE000A00F0BEFA7A
:10228000BBF1000F009AC0F228814FEA8B0E46ABDB
:1022900003EB0E060EF1040C1FED537A07EB0C0353
:1022A000311D73ED017AF8EEE77ABB4267EE807A72
:1022B00020EE070A61ED017AF3D1002D1FED5B6A74
:1022C0004FF0000420DB9348DFED937AB0EE467ABE
:1022D0003146002303E09C4208DBB0EC017AF1ECCC
:1022E000016A01339D42E6EE877AF4DA5AAB03EBDA
:1022F0008403A34543ED287AA6F1040604F1010303
:1023000005D0002D1C46DEDADFED837AEEE7689912
:1023100002291CDC002900F395800FD132ABDFEDE0
:102320007E7A9C443CED017A634577EE877AF9D159
:102330000AB1F1EE677A069BC3ED007A19EE903A86
:1023400003F007005BB0BDEC048BBDE8F08F689B29
:10235000032BF3D1BBF1000F00F0D4800EF5B47362
:102360006B4432A913ED287A01EB8B0373ED017AEC
:10237000F0EE476A37EE277A994277EEC77A83ED17
:10238000007A77EEA67AC3ED017AEFD1BBF1010FA7
:1023900040F3B8800BF1804B0EF5B4730BF1FF3BAB
:1023A0000DEB030E4FEA8B0B0BF104031EED287AA5
:1023B0000B4433A873ED017AF0EE476A37EE277AC3
:1023C000984277EEC77A83ED007A77EEA67AC3ED6E
:1023D000017AEFD10BF1080BDFED4F7A01EB0B0324
:1023E000083133ED017A994277EE877AF9D1002AE4
:1023F00056D10699329A339B0A604B60C1ED027A3E
:102400009CE705F1FF3C57F82C3003F07F0347F8B9
:102410002C30B8E608230793002302935FE519EEFA
:10242000903A002D03F1010309EE903AC8BF022251
:102430003FF76EAEF7EE007A37EEC88A0222F4E577
:10244000002191E632A9DFED347A01EB830333ED0D
:10245000017A994277EE877AF9D19DED327A8ABB7B
:10246000069BBBF1000FC3ED007A77EE677A0BDDB8
:1024700033A90123B1EC017A01339B4577EE877ACA
:10248000F8DA0AB1F1EE677A069BC3ED017A55E7F7
:10249000BDEEC00A9B4610EE101A47F82310E9E67D
:1024A000DDED326A9DED337A069BF1EE666AB1EEA0
:1024B000477AF1EE677AC3ED006A83ED017AC3EDE6
:1024C000027A3BE7069BF1EE676ABBF1000F77EEFD
:1024D000677AC3ED006ACBDCD4E7689B022B0DDC86
:1024E000002B14DC7FF42AAFDFED0B7A002A3FF4D7
:1024F00022AF1EE7039B4FEA830C35E5689B032B55
:102500007FF41CAFDFED047A002AC9D171E7DFED5B
:10251000027AA2E73C2601080000000010EE103A03
:1025200023F00043B3F1485F04DAFDEEC07A17EE02
:10253000903A5BB360EE007A9FED157ADFED155AA5
:102540009FED156ADFED156AE7EE875A9FED147A65
:10255000A5EEA76A20EE275AE6EE276AA6EEA77A2E
:1025600030B9DFED106AE7EE876AA6EE850A70479C
:1025700027EE457AF6EE006AA0EEA67ADFED0A6A4B
:10258000D7EE270AE5EE260A30EE600A704700BF54
:10259000D3C92E2F342FD7B21BEF3836010D50B9C7
:1025A0008988083CABAA2ABEABAA2A3E38B510EEF1
:1025B000105A25F00044B4F1A14FF0EE407A0BDB45
:1025C000B4F1FF4F58DCDFED517A9FED510A002D39
:1025D000C8BFB0EE670A38BD4E4B9C425BDCB4F11D
:1025E000445F4CDB4FF0FF3267EEA76ADFED4A4AEB
:1025F000DFED4A5A9FED4A5A9FED4A4A26EEA67AE7
:10260000B0EE666AE7EE245A531CDFED474ADFED71
:10261000476AA5EE875AE7EE246ADFED455ADFEDFB
:10262000454AE6EE875AA5EE074A9FED435ADFED8D
:10263000436AA5EE875AE4EE074ADFED415AE4EE1D
:10264000876AE5EE075A66EE866A25EE877A37D006
:102650003C4B03EB820376EE876A93ED000A93ED21
:10266000047A96EEA70A002D70EE677A37EE670AB5
:10267000B1DAB1EE400A38BD30EE000A38BD9FED48
:10268000327A30EE077AF7EE006AB4EEE67AF1EECF
:1026900010FAA7DD38BD00F05DF82C4B9C4216DC2B
:1026A000A3F5D0039C4227DCF0EE007ABFEE007A5F
:1026B000A0EE277A002230EE270AC7EE007A93E7D1
:1026C00076EE876AE6EEE77AB0EE670A38BD204B11
:1026D0009C420BDCF7EE087AB7EE007AA0EE277A80
:1026E000022230EE670AC0EE077A7DE7BFEE007A7D
:1026F000C7EE007A032277E7F7EE007A30EE677ACA
:1027000030EE270A0122C7EE007A6DE7DB0FC93FE2
:10271000DB0FC9BFFFFFDF3ED769853C59DA4B3D70
:10272000356B883D6E2EBA3D21A215BD6BF16EBD95
:1027300095879DBD2549123E388EE3BDABAAAA3EC2
:10274000CDCC4CBE64260108CAF24971FFFF973F09
:10275000FFFF1B4010EE103A23F0004300EE103A4A
:10276000704700BF10EE102AC2F3C7537F3B162BF1
:1027700022F0004128DC002B18DB1A4919410A42DB
:1027800021D0DFED197A70EE277AF5EEC07AF1EEFE
:1027900010FA18DD002A04DA4FF4000040FA03F3BF
:1027A0001A4422EA010300EE103A7047DFED0E7A78
:1027B00070EE277AF5EEC07AF1EE10FA03DD002A0A
:1027C00008DB9FED0A0A7047B1F1FF4FFBD330EEF3
:1027D000000A7047FFEE007A002918BFB0EE670AC2
:1027E000704700BFFFFF7F00CAF249710000000080
:1027F0009FED010A704700BF0000C07F82B08DEDE1
:10280000010A019B33F000422AD0B2F1FF4F23D2DC
:1028100013F0FF4F28D19DED017ADFED2A7A2A4B84
:1028200067EE277A9842CDED017A37DB019BC3F33F
:10283000C752193A0244FE2A1ADD9FED240A9FED81
:10284000247A019B002BF0EE407AB8BFB0EE470A25
:1028500020EE270A02B0704730EE000A02B070473F
:102860009DED010A02B07047D20D0244FE2AE4DC5D
:10287000002A0BDC12F1160F17DA4CF25033984293
:10288000DBDC9FED140A9FED147ADAE723F0FF43B7
:1028900043EAC25300EE103A02B070479FED0D0AB2
:1028A000DDED017A27EE800AD8E7193223F0FF43E5
:1028B00043EAC253DFED097A07EE103A27EE270A02
:1028C000CCE700BF0000004CB03CFFFFCAF24971EA
:1028D000CAF249F16042A20D6042A28D00000033AD
:1028E00008B50B4B1A6842F400721A601A6842F479
:1028F00080621A601A6842F480721A60032000F045
:102900009FFD002009F05CF809F038F8002008BDB0
:10291000003C0240034A1168034B1B780B441360D0
:10292000704700BF4C0A002051080020014B186876
:10293000704700BF4C0A002038B50446FFF7F6FF89
:102940000546B4F1FF3F02D0044B1B781C44FFF74F
:10295000EDFF401BA042FAD338BD00BF5108002054
:102960004A4B5A6822F440325A605A6841680A4316
:102970005A600268536823F4807353600268536896
:10298000016943EA012353600268536823F04073EE
:1029900053600268536881680B4353600268936810
:1029A00023F40063936002689368C1680B439360EB
:1029B000826A374B9A4257D00268936823F070635B
:1029C000936002689368816A0B439360026893681E
:1029D00023F04053936002689368C16A0B4393608D
:1029E0000268936823F00203936002689368017E93
:1029F00043EA4103936090F82030002B3FD00268F7
:102A0000536843F4006353600268536823F46043DF
:102A1000536001684B68426A013A43EA42334B60B3
:102A20000268D36A23F47003D3620168CB6AC26977
:102A3000013A43EA0253CB620268936823F40073BD
:102A400093600268936890F8301043EA41239360E2
:102A50000268936823F48063936002689368416915
:102A600043EA8123936070470268936823F07063A0
:102A700093600268936823F040539360B0E7026864
:102A8000536823F400635360CAE700BF002301408A
:102A90000100000F38B310B50446036C43B1236C3A
:102AA00013F0100F0BD00120002384F83C3010BD30
:102AB00008F0DEF80023636484F83C30EFE7236C11
:102AC00023F4885323F0020343F0020323642046D7
:102AD000FFF746FF00206064236C23F0030343F0FC
:102AE00001032364E0E701207047000030B482B0A6
:102AF0000023019390F83C30012B00F0BB800123B0
:102B000080F83C300B68092B41D90468E2689BB21D
:102B100003EB43031E3B4FF0070C0CFA03F322EACE
:102B20000303E3600468E2680B8803EB43031E3B86
:102B30008D6805FA03F31343E3604B68062B3DD819
:102B40000468626B03EB8303053B4FF01F0C0CFA28
:102B500003F322EA030363630468626B4B6803EBCD
:102B60008303053BB1F800C00CFA03F3134363631E
:102B70000268414B9A4251D002683F4B9A4256D06C
:102B8000002380F83C30184602B030BC704704681F
:102B900022699BB203EB43034FF0070C0CFA03F3DB
:102BA00022EA03032361046822690B8803EB4303D1
:102BB0008D6805FA03F313432361BEE70C2B16D887
:102BC00005682A6B03EB8303233B1F2404FA03F3FA
:102BD00022EA03032B6305682A6B4B6803EB83032C
:102BE000233B0C8804FA03F313432B63C0E7056807
:102BF000EA6A03EB8303413B1F2404FA03F322EA4E
:102C00000303EB620568EA6A4B6803EB8303413B0D
:102C10000C8804FA03F31343EB62A9E70B68122B49
:102C2000AAD1164A536843F480035360A4E70B68A3
:102C3000103B012BA4D8114A536843F4000353609E
:102C40000B68102B9CD10E4B1B6802F1467202F5EB
:102C50002E3202F28332A2FB03239B0C03EB83038D
:102C60005B00019302E0019B013B0193019B002B60
:102C7000F9D185E7022087E70020014000230140C9
:102C8000E4080020002800F0A18038B5044690F840
:102C90002030D3B12268136843F001031360FFF7BB
:102CA00045FE054623685A6812F0010F10D1FFF760
:102CB0003DFE401B0A28F5D9636A43F40033636282
:102CC000052384F82030012038BD08F059F8E1E7E9
:102CD0001A6822F002021A60FFF728FE05462368F0
:102CE0005A6812F0020F0DD0FFF720FE401B0A2891
:102CF000F5D9636A43F400336362052384F8203016
:102D00000120E1E7227E012A3DD01A6822F08002EC
:102D10001A60637E012B3BD02268136823F04003C6
:102D20001360A37E012B39D02268136823F020039F
:102D30001360E37E012B37D02268136843F0100341
:102D40001360237F012B35D02268136823F008031A
:102D50001360637F012B33D02268136823F00403D0
:102D60001360A368E2681343226913436269134343
:102D70006268013A21681343CB610020606201233D
:102D800084F82030A0E71A6842F080021A60C0E799
:102D90002268136843F040031360C2E72268136897
:102DA00043F020031360C4E72268136823F0100384
:102DB0001360C6E72268136843F008031360C8E78E
:102DC0002268136843F004031360CAE701207047C8
:102DD00090F82030013BDBB2012B05D9436A43F464
:102DE000802343620120704730B5464BD3F8002260
:102DF00042F00102C3F80022D3F8002222F47C52F0
:102E0000C3F80022D3F80022486A42EA0022C3F83D
:102E100000224A6902F01F02012000FA02F2D3F8F0
:102E20001C026FEA020C20EA0200C3F81C02CB6904
:102E3000C3B9344BD3F80C020CEA0000C3F80C02FF
:102E40008C884869CD6844EA0544483043F83040EE
:102E50008C68088840EA04404C6904F1480E03EB92
:102E6000CE035860CB69012B1ED08B69002B33D168
:102E70002448D0F804320CEA0303C0F804320B698A
:102E80008BBB2048D0F814320CEA0303C0F814328C
:102E90000B6A012B2ED01B4AD2F8003223F001031B
:102EA000C2F80032002030BD164BD3F80C0210439C
:102EB000C3F80C028C8848690D6844EA0544483020
:102EC00043F8304088894C698D6840EA05404834B1
:102ED00003EBC4035860C8E70A48D0F80432134330
:102EE000C0F80432CBE70748D0F814321343C0F8D7
:102EF0001432CDE70349D1F81C321A43C1F81C2221
:102F0000C9E700BF0064004070B5044690F8205047
:102F1000EDB2012D06D0436A43F40023436201253C
:102F2000284670BD022380F820300268136823F021
:102F300001031360FFF7FAFC064623685B6813F091
:102F4000010F0CD0FFF7F2FC831B0A2BF5D9636A43
:102F500043F400336362052384F82030E0E7002562
:102F60006562DDE730B590F820C00468A4680CF114
:102F7000FF3C5FFA8CFCBCF1010F62D814F0E05FFB
:102F800059D0C4F3016C012404FA0CF41C608B6862
:102F9000002B3DD10D68CB68046843EA45550CF120
:102FA00018031B01E55003680C690CF1180E03EBC4
:102FB0000E135C600B7D012B35D0D17993791B0406
:102FC00043EA0163517943EA0123147901682343F9
:102FD00001EB0C11C1F88C31D17893781B0443EAD2
:102FE0000163517843EA0123117802680B4302EB35
:102FF0000C12C2F8883102680CF1180C4FEA0C1C54
:1030000052F80C3043F0010342F80C3000201DE070
:103010004C6843EAC403CC6823430CF11804240130
:1030200005682B51BFE7036803EB0E13596841F4A1
:1030300080715960C1E7436A43F400134362012081
:1030400004E0436A43F480234362012030BD90F8DA
:1030500020C00CF1FF3C5FFA8CFCBCF1010F00F2C8
:10306000A58030B451B90468E46814F0030F10D19E
:10307000436A43F40013436201207EE0046824693C
:1030800014F0030F05D1436A43F400134362012097
:1030900073E0056801F11B0424012C5904F00404B9
:1030A0009460002C6BD1056801F11B0424012C599C
:1030B000640D1460046801F11B0C4FEA0C1C54F8F9
:1030C0000C4004F00204D4600468A444DCF804500A
:1030D00015F0080F5BD008241461056801F11B0C82
:1030E00005EB0C156D68C5F307259561046804EBC5
:1030F0000C146468240C5461026802EB0112D2F8CB
:10310000B8211A70026802EB0112D2F8B821C2F39A
:1031100007225A70026802EB0112D2F8B821C2F3FA
:1031200007429A70026802EB0112D2F8B821120E1F
:10313000DA70026802EB0112D2F8BC211A7102683F
:1031400002EB0112D2F8BC21C2F307225A710268C5
:1031500002EB0112D2F8BC21C2F307429A71026855
:1031600002EB0112D2F8BC21120EDA71C1B9026869
:10317000D36843F02003D360002030BC704705685B
:1031800001F11B0424012C59E408546092E701F179
:103190001B0504EB0514646804F00F0414619CE73C
:1031A0000268136943F020031361E5E7436A43F4BF
:1031B000802343620120704790F82030013BDBB24E
:1031C000012B05D9436A43F48023436201207047F1
:1031D0000268536919435161002070477047704776
:1031E0007047704770477047704770477047704727
:1031F000704770472DE9F84F054603685C69D3F8BE
:1032000004809F68D3F80CB0D3F810A0D3F81890BE
:1032100014F001063BD017F0010616D001229A6087
:1032200017F0020F08D117F0040F0CD117F00806A1
:1032300006D04FF4805608E0FFF7D0FF002604E0E8
:10324000FFF7CFFF01E04FF4006617F4807F0DD049
:103250002B684FF480729A6017F4007F40F08680EC
:1032600017F4806F00F0868046F4005617F4803F14
:103270000DD02B684FF480329A6017F4003F40F075
:10328000838017F4802F00F0838046F4004614F00A
:10329000080F07D01BF0100F04D046F400762B68FF
:1032A0001022DA6014F0040F02D01BF0080F79D15D
:1032B00014F0020F04D02B68DB6813F0030F78D1F1
:1032C00014F0400F07D01AF0100F04D046F48066B7
:1032D0002B6810221A6114F0200F02D01AF0080F88
:1032E0006BD114F0100F04D02B681B6913F0030F7F
:1032F0006AD114F4003F02D018F0100F68D114F412
:10330000803F02D018F0080F69D114F4004F7AD032
:1033100018F0040F74D014F4807F04D019F0010F5A
:1033200001D046F0010614F4007F04D019F0020F1A
:1033300001D046F0020614F4806F04D019F0040F97
:1033400001D046F0040614F4006F59D019F070094A
:1033500056D0B9F1400F65D058D8B9F1200F5ED0E2
:10336000B9F1300F42D146F0200644E02846FFF77D
:1033700036FF7BE717F4006F02D046F4804675E70E
:103380002846FFF72FFF71E72846FFF729FF7EE762
:1033900017F4002F02D046F4803678E72846FFF76E
:1033A00022FF74E72B680822DA602846FFF71CFF2B
:1033B0007EE728460AF0D6FA82E72B6808221A61CF
:1033C0002846FFF713FF8CE72846FFF70EFF90E72C
:1033D0002B6810225A602846FFF709FF8FE72B68F9
:1033E00008225A602846FFF703FF8EE7B9F1100F55
:1033F00001D146F008062A68936923F070039361AF
:103400002B6804225A609EB9BDE8F88FB9F1500FBD
:103410000BD0B9F1600FEED146F48076EBE746F0C1
:103420001006E8E746F04006E5E746F08006E2E7EA
:103430006B6A1E436E622846FFF7DBFEE4E700007E
:10344000074AD36823F4E0631B041B0C000200F45A
:10345000E060034343F0BF6343F40033D36070473D
:1034600000ED00E000B5194BDB68C3F30223C3F1A4
:10347000070CBCF1040F28BF4FF0040C03F1040E3D
:10348000BEF1060F18D9033B4FF0FF3E0EFA0CFCBD
:1034900021EA0C0199400EFA03F322EA03031943CF
:1034A00000280BDB0901C9B200F1604000F5614062
:1034B00080F800135DF804FB0023E5E700F00F003F
:1034C0000901C9B2024B1954F4E700BF00ED00E056
:1034D00014ED00E0002807DB00F01F024009012383
:1034E0009340024A42F82030704700BF00E100E0FC
:1034F00058B110B5044643791BB101236371002014
:1035000010BD037107F0E4FCF7E7012070470000ED
:1035100010B40368D9B210390C4AA2FB0142120957
:103520000B4CA25CC2655F2909D923F47F7323F099
:10353000030304338365806D5DF8044B704723F407
:103540007F7323F003038365F5E700BFABAAAAAA44
:1035500084260108836A826992B9012B0AD0022B62
:1035600002D00BB100207047C36A13F0807F28D1CE
:1035700000207047C36AB3F1C07F24D00020704799
:10358000B2F5005F09D0022B25D9032B25D1C36AE0
:1035900013F0807F23D100207047032B03D8DFE88E
:1035A00003F01404140A00207047C36A13F0807FEC
:1035B0000DD100207047C36AB3F1C07F09D000204D
:1035C000704701207047012070470120704701209B
:1035D000704701207047012070470020704701208C
:1035E0007047000070B50446FFF7A0F9002C5BD0CF
:1035F0000546022384F83530002384F834302268ED
:10360000136823F00103136023681A6812F0010F96
:103610000AD0FFF78BF9431B052BF5D920236365EF
:10362000032084F8350070BD1A6820481040616896
:10363000A2680A43E1680A4321690A4361690A43AF
:10364000A1690A43E1690A43216A0A430243616AA4
:1036500004291ED01A602668756925F00705636A7B
:103660001D43042B07D1A36A1D43E36A1BB1204607
:10367000FFF770FF90B975612046FFF749FFE26DD3
:103680003F239340836000206065012384F8353038
:10369000C9E7E16A206B01430A43DBE74023636526
:1036A000012084F83500BEE70120BCE73F8010F020
:1036B00070B50446866DFFF739F994F83530DBB202
:1036C000022B06D080236365002384F83430012068
:1036D00070BD05462268136823F016031360226844
:1036E000536923F080035361236CE3B122681368AC
:1036F00023F0080313602268136823F001031360AA
:1037000023681B6813F0010F11D0FFF70FF9431B5B
:10371000052BF5D920236365032084F835000023A9
:1037200084F83430D4E7A36C002BDFD1E3E7E26DFB
:103730003F239340B360012384F83530002084F8A0
:103740003400C5E790F83530DBB2022B03D080237C
:10375000436501207047052380F8353002681368FF
:1037600023F001031360002070470000F0B583B020
:10377000044600230193724B1D68724BA3FB053571
:10378000AD0A876D3E68C26D08239340334210D066
:1037900003681A6812F0040F0BD01A6822F00402B2
:1037A0001A60C26D08239340BB60436D43F0010370
:1037B0004365E26D01239340334209D02268526988
:1037C00012F0800F04D0BB60636D43F002036365A9
:1037D000E26D04239340334209D02268126812F04C
:1037E000020F04D0BB60636D43F004036365E26DB8
:1037F00010239340334224D02268126812F0080F3D
:103800001FD0BB6023681A6812F4802F0DD01B688C
:1038100013F4002F04D1236C9BB12046984710E08D
:10382000A36C73B1204698470BE01A6812F4807FAE
:1038300003D11A6822F008021A60236C0BB12046EB
:103840009847E26D20239340334255D02268126896
:1038500012F0100F50D0BB6094F83530DBB2052B5E
:103860000ED023681A6812F4802F33D01B6813F42B
:10387000002F2AD1636C002B3ED0204698473BE0B6
:103880002268136823F0160313602268536923F03B
:1038900080035361236CA3B12268136823F00803EB
:1038A0001360E26D3F239340BB60012384F8353001
:1038B000002384F83430236D002B3FD020469847F6
:1038C0003CE0A36C002BE7D1EBE7E36BA3B1204610
:1038D000984711E01A6812F4807F09D11A6822F023
:1038E00010021A60012384F83530002384F8343044
:1038F000E36B0BB120469847636DFBB1636D13F02A
:10390000010F17D0052384F835302268136823F09F
:1039100001031360019B01330193AB4204D8236878
:103920001B6813F0010FF5D1012384F83530002313
:1039300084F83430E36C0BB12046984703B0F0BDF7
:10394000E4080020B5814E1B00230F2B00F2E48019
:1039500070B582B060E085685E000324B44025EA5B
:103960000405CC68B4402C438460456825EA020510
:103970004C68C4F300129A402A4342605AE0DC08C3
:10398000083450F8246003F0070295000F22AA4083
:1039900026EA020E0A69AA4042EA0E0240F82420F2
:1039A0005CE0072200E0002202FA0EF22A43023411
:1039B0005A4D45F824205A4A94686FEA0C0224EACA
:1039C0000C054E6816F4801F01D04CEA0405544CD7
:1039D000A560E46802EA04054E6816F4001F01D0F1
:1039E0004CEA04054E4CE560646802EA04054E6842
:1039F00016F4003F01D04CEA0405494C6560246888
:103A000022404D6815F4803F01D04CEA0402444C3A
:103A1000226001330F2B7DD801229A400C6804EA02
:103A2000020C32EA0404F4D14C6804F00304013CB3
:103A3000012C90D94A6802F00302032A09D0C46815
:103A40005D000322AA4024EA02048A68AA402243B5
:103A5000C2604A6802F00302022A90D004684FEA6A
:103A6000430E032202FA0EF224EA02044A6802F02C
:103A7000030202FA0EF2224302604A6812F4403F47
:103A8000C7D000220192274A546C44F48044546405
:103A9000526C02F480420192019A9C08A51C1F4AB4
:103AA00052F8255003F003024FEA820E0F2202FA69
:103AB0000EF225EA02051C4A90423FF474AF02F56B
:103AC000806290421AD002F58062904218D002F5CE
:103AD0008062904216D002F58062904214D002F5C6
:103AE0008062904212D002F58062904210D002F5BE
:103AF000806290423FF455AF082255E7012253E718
:103B0000022251E703224FE704224DE705224BE74B
:103B1000062249E702B070BD704700BF003801407F
:103B2000003C014000380240000002400AB18161BF
:103B3000704709048161704708B5054B5B69034212
:103B400000D108BD024B586109F0A6FAF9E700BFA1
:103B5000003C014003685A6912F4806F01D10020D3
:103B600070476FF480625A6100230363202280F85B
:103B70003D2080F83E30026C42F00402026480F87E
:103B80003C30012070472DE9F04106460C461746AF
:103B900098463BE0FEF7CAFE069BC01A404502D895
:103BA000B8F1000F32D1012D18D033689B6924EA97
:103BB00003039BB2B3FA83F35B099F4226D1002330
:103BC0003363202286F83D2086F83E30326C42F086
:103BD0002002326486F83C30012027E033685B69BC
:103BE00024EA03039BB2B3FA83F35B09E5E7336886
:103BF0005B6924EA030C1FFA8CFCBCFA8CFC4FEACC
:103C00005C1C674511D1B8F1FF3FC3D1C4F3074530
:103C1000012DECD033689B6924EA030C1FFA8CFC5D
:103C2000BCFA8CFC4FEA5C1CEBE70020BDE8F0819D
:103C30002DE9F84305460E469046994653E01A682A
:103C400042F400721A602B686FF480625A6100239C
:103C50002B63202285F83D2085F83E302A6C42F007
:103C600004022A6485F83C3001204AE0FEF75EFE3B
:103C7000A0EB0900404502D8B8F1000F33D1012F65
:103C800017D02B689B6926EA03039BB2003B18BF41
:103C9000012343B300232B63202285F83D2085F8C0
:103CA0003E302A6C42F020022A6485F83C30012024
:103CB00027E02B685B6926EA03039BB2003B18BF31
:103CC0000123E6E72B689C6926EA0404A4B2003CC1
:103CD00018BF0124A4B12B685A6912F4806FAED1C9
:103CE000B8F1FF3FC2D1C6F30747012FEAD12B68D5
:103CF0005C6926EA0404A4B2003C18BF0124E9E789
:103D00000020BDE8F88370B504460D4616462368CA
:103D10005B6913F0800F21D12046FFF71BFFF8B934
:103D2000B5F1FF3FF3D0FEF701FE801BA84201D89A
:103D3000002DECD123685B6913F0800FE7D10023DD
:103D40002363202284F83D2084F83E30226C42F028
:103D50002002226484F83C30012000E0002070BD85
:103D60000120FCE72DE9F04385B004460D4691465D
:103D70001F46DDF830800D9E0368196841F480719C
:103D800019600096434600224FF00111FFF7FBFE39
:103D900060B9236805F0FE051D6133464246264999
:103DA0002046FFF745FF68B1012008E023681B6843
:103DB00013F4807F02D04FF400732364032005B016
:103DC000BDE8F0830023039323685A6903929B693B
:103DD0000393039B324641462046FFF794FF30B9D8
:103DE000012F0FD123685FFA89F61E61E7E7236C84
:103DF000042B01D00120E2E72268136843F400732A
:103E00001360F7E723684FEA19221A6132464146E8
:103E10002046FFF778FF20B923685FFA89F61E6114
:103E2000CDE7236C042B01D00120C8E7226813687A
:103E300043F400731360F7E7020001002DE9F04737
:103E400084B004460D46164699460C9FDDF8348032
:103E50000268136843F4806313600368196841F4CF
:103E600080711960CDF800803B4600224FF00111AF
:103E7000FFF789FE70B95FFA85FA236805F0FE0541
:103E80001D6143463A4641492046FFF7D1FE68B1DD
:103E9000012008E023681B6813F4807F02D04FF4F0
:103EA00000732364032004B0BDE8F087002303936C
:103EB00023685A6903929B690393039B42463946E0
:103EC0002046FFF720FF80B9B9F1010F18D1236810
:103ED000F6B21E61424639462046FFF714FF68B32A
:103EE000236C042B24D00120DDE7236C042B01D0AC
:103EF0000120D8E72268136843F400731360F7E7E2
:103F00002368320A1A61424639462046FFF7FBFE13
:103F100018B92368F6B21E61DCE7236C042B01D0CC
:103F20000120C0E72268136843F400731360F7E7C9
:103F30002268136843F400731360D4E7226813689F
:103F400043F480731360CDF800803B4600224FF0AD
:103F500001112046FFF717FE68B922684AF00103F5
:103F6000136143463A4609492046FFF761FE00289F
:103F700099D0012097E723681B6813F4807F02D053
:103F80004FF40073236403208DE700BF020001009B
:103F900070B504460D46164623685B6913F0040F9E
:103FA00021D12046FFF7D6FDF8B9B5F1FF3FF3D098
:103FB000FEF7BCFC801BA84201D8002DECD1236881
:103FC0005B6913F0040FE7D100232363202284F8F8
:103FD0003D2084F83E30226C42F02002226484F8B6
:103FE0003C30012000E0002070BD0120FCE770B5EE
:103FF00004460D46164614E06FF010025A61002385
:104000002363202284F83D2084F83E30226C226411
:1040100084F83C30012025E023685B6913F0400FF1
:1040200010D02368586910F0400F1AD1586910F069
:10403000100FE1D1FEF77AFC801BA842ECD8002DCE
:10404000EFD1E9E700232363202284F83D2084F8A0
:104050003E30226C42F02002226484F83C30012081
:1040600000E0002070BD0000002800F0CC8070B59A
:10407000044690F83D30002B77D0242384F83D305F
:104080002268136823F0010313602268136843F465
:10409000004313602268136823F40043136001F0A7
:1040A0002DFC62685A4B9A4264D85A4B98428CBF96
:1040B00000230123002B40F0A8805749A1FB0031C9
:1040C0008B0C25686A6822F03F0242EA91426A60DE
:1040D00021680A6A22F03F0266684D4DAE424FD811
:1040E000013313430B622168CA6922F44F4222F064
:1040F000FF026668464B9E424CD8431E7600B3FBD7
:10410000F6F3013340F6FC70034278D0C3F30B039F
:104110001343CB6121680B6823F0C003E269206A76
:10412000024313430B6021688B6823F4034323F09D
:10413000FF032269E068024313438B602168CB6868
:1041400023F0FF036269A06902431343CB60226836
:10415000136843F00103136000202064202384F8D7
:104160003D30206384F83E0070BD80F83C3007F09D
:1041700013F982E7294B98428CBF0023012399E76A
:104180004FF4967505FB03F3254DA5FB03539B09DF
:104190000133A6E7A368BBB9451E06EB460CB5FB89
:1041A000FCF50135C5F30B05B5FA85F56D0945BB81
:1041B000C3B9013806EB4603B0FBF3F30133C3F395
:1041C0000B0343F40043A3E7451E06EB860C0CEB00
:1041D0008C0CB5FBFCF50135C5F30B05B5FA85F57F
:1041E0006D09E4E7013806EB860303EB8303B0FBBC
:1041F000F3F30133C3F30B0343F4404388E7042391
:1042000086E7012384E7012070470120ACE700BF67
:10421000A08601007F841E0083DE1B43FF083D0053
:10422000D34D62102DE9F04383B004460F4690460B
:1042300099460C9EFEF77AFB054694F83D00C0B205
:10424000202803D0022003B0BDE8F0830095192395
:1042500001224B492046FFF796FC002840F0898058
:1042600094F83C30012B00F08680012384F83C3028
:1042700023681A6812F0010F03D11A6842F0010294
:104280001A602268136823F400631360212384F802
:104290003D30402384F83E30002323640A9B636250
:1042A000BDF82C306385638D2385364BE362019521
:1042B00000964B46424639462046FFF753FD0028FC
:1042C0005BD1238D002B35D02A4631462046FFF79F
:1042D0001AFD20BB626A236812781A61626A531C55
:1042E0006362218D013989B22185638D9BB2013BC7
:1042F0009BB263852368586910F0040FE1D0002950
:10430000DFD052781A61636A01336362238D013B07
:104310002385638D9BB2013B9BB26385D1E7236C00
:10432000042B01D001208EE72268136843F4007348
:104330001360F7E72A4631462046FFF729FE50B1C1
:10434000236C042B01D001207DE72268136843F41D
:1043500000731360F7E72268136843F40073136077
:10436000202384F83D30002384F83E3084F83C302C
:1043700069E7022067E7022065E7012063E700BFE5
:10438000020010000000FFFF2DE9F04387B0044653
:104390000F4690469946109EFEF7C8FA054694F8D7
:1043A0003D00C0B2202804D00227384607B0BDE83F
:1043B000F08300951923012288492046FFF7E3FB8B
:1043C000002840F04D8194F83C30012B00F04A81E8
:1043D000012384F83C3023681A6812F0010F03D1DE
:1043E0001A6842F001021A602268136823F400631D
:1043F0001360222384F83D30402384F83E300023AC
:1044000023640E9B6362BDF83C306385638D238516
:10441000734BE362019500964B464246394620466F
:10442000FFF70CFD0746002840F01E81238D5BB985
:10443000029323685A6902929A690292029A1A6850
:1044400042F400721A6075E0012B0AD0022B1AD0D8
:104450000023059323685A6905929B690593059B80
:1044600068E02268136823F48063136000230393D9
:1044700023685A6903929A690392039A1A6842F46C
:1044800000721A6056E02268136823F48063136098
:104490002268136843F400631360002304932368C5
:1044A0005A6904929B690493049B43E02A4631466F
:1044B0002046FFF79CFD002840F0D88023681A6949
:1044C000636A1A70636A01336362238D013B23853B
:1044D000638D9BB2013B9BB263852BE00095334615
:1044E000002240492046FFF74EFB002840F0C080E4
:1044F0002268136843F40073136023681A69636ABF
:104500001A70626A531C6362238D013B2385638D9D
:104510009BB2013B9BB2638523681B695370636A3E
:1045200001336362238D013B2385638D9BB2013B85
:104530009BB26385238D002B00F08980032B53D819
:10454000012BB3D0022BC9D0009533460022254958
:104550002046FFF718FB002840F08C802268136883
:1045600023F48063136023681A69636A1A70636AAC
:1045700001336362238D013B2385638D9BB2013B35
:104580009BB2638500953346002216492046FFF70B
:10459000FAFA002870D12268136843F4007313609C
:1045A00023681A69636A1A70626A531C6362238DF6
:1045B000013B2385638D9BB2013B9BB263852368DE
:1045C0001B695370636A01336362238D013B23854A
:1045D000638D9BB2013B9BB26385ABE70200100089
:1045E0000000FFFF040001002A4631462046FFF785
:1045F000FEFC002842D123681A69636A1A70636A54
:1046000001336362228D013A92B22285638D9BB29F
:10461000013B9BB263852368596911F0040F89D06F
:10462000032A0FD023681A69636A1A70636A013318
:104630006362238D013B2385638D9BB2013B9BB25B
:10464000638577E71A6822F480621A60EAE720231C
:1046500084F83D30002384F83E3084F83C30A4E6F2
:104660000227A2E60227A0E601279EE601279CE694
:1046700001279AE6012798E6012796E6012794E6A6
:104680002DE9F04383B0D0F8008001EBC10300EBCB
:1046900083039A6A5B6A9A4254D807460C469B1A6F
:1046A00001EBC10200EB8202D2699A4200D31A46A2
:1046B00002F103094FEA990915E006F103094FEAEF
:1046C0009909BB7904EBC40507EB8505296A0093BA
:1046D000B3B2E2B2404602F0C8FF2B6A33442B6209
:1046E000AB6A3344AB6208EB441303F510639B6978
:1046F0009BB24B4512D304EBC40207EB8202916AD2
:10470000536A99420AD24BB15B1A04EBC40207EB1D
:104710008202D6699E42D0D31E46CEE704EBC40087
:1047200007EB80077A6ABB6A9A420FD804F00F043D
:104730000123A340D8F8344824EA0304C8F83448D5
:10474000002000E0012003B0BDE8F0830020FAE77C
:1047500030B583B000287AD00446056890F89534C7
:10476000C3B1032384F89534B5F1A04F17D0206866
:1047700002F02CFD237C8DF80030231D0ECB206829
:1047800002F062FC70B1022384F8953401252846BA
:1047900003B030BD80F8943407F0D4FFE1E7002384
:1047A000A371E4E70021206803F084F9024608B908
:1047B000034617E0022384F895340125E7E703EB6D
:1047C000C30104EB8101012048750B75CB850020E6
:1047D0000876C861086203EBC30104EB81014862FB
:1047E0000133DBB220799842E9D816E002EBC2032C
:1047F00004EB8303002183F8551283F8542283F8D5
:104800005812C3F85C12C3F8601202EBC20304EB47
:104810008303C3F864120132D2B29042E6D8237CFB
:104820008DF80030231D0ECB206802F025FD0546D3
:1048300020B1022384F895340125A8E7002363748E
:10484000012384F89534206803F0F1F89FE70125EF
:104850009DE7036890F89424012A1AD010B5044605
:10486000012280F89424DA6812F0400F02D0427BD3
:10487000012A09D0206802F0A3FC206803F0C9F8DF
:10488000002084F8940410BD9A6B42F480329A633D
:10489000F0E702207047000070B504460D4600683E
:1048A000066C00EB411303F530639A68A179012986
:1048B00011D038498E4256D03DB905EBC50304EB03
:1048C0008303D3F86432002B5ED0E9B2204607F0B0
:1048D00083FF002070BD12F0080F09D02E498E42D0
:1048E000F7D912F4004FF4D04FF400429A60F0E789
:1048F00012F0200F02D020229A60EAE712F0280F6F
:10490000E7D125498E4206D912F4004F03D04FF467
:1049100000429A60DDE705EBC50204EB8202D2F8A3
:1049200074121B69C3F31203CB1AC2F868327DB943
:1049300005EBC50204EB8202D2F864226AB105EBF2
:10494000C50204EB8202D2F860120B44C2F8603256
:10495000E9B2204607F040FFBBE704F29C42012188
:1049600003F0EAF8F4E712F4004F03D04FF40042EA
:104970009A60AEE712F0200F01D020229A60E9B2CF
:10498000204607F029FFA4E704F29C42002103F02F
:10499000D3F89AE70A31544F0A30544F38B50446D9
:1049A00003681D6C03EB4113D3F8081B0E4A9542B4
:1049B00007D903F5306311F4004F02D04FF40042E1
:1049C0009A60204607F000FF074B9D4202D9A37969
:1049D000012B01D0002038BD04F29C420121206847
:1049E00003F0AAF8F6E700BF0A30544F90F8943469
:1049F000012B0CD010B50446012380F89434417487
:104A0000006802F0F6FF002084F8940410BD022034
:104A1000704738B505468C4611F0800F2BD101F058
:104A20000F0E0EEBCE04A40004F514740444211DF3
:104A30000EEBCE0E00EB8E0E00208EF855020CF021
:104A40000F0C81F800C0C2F30A028A600B714A7829
:104A50000AB1A1F81AC0022B1CD095F89434012B8E
:104A60001BD0012385F89434286802F0E0FC002074
:104A700085F8940438BD01F00F0000EBC0018900F7
:104A800010312944043100EBC00005EB8000012403
:104A90004475D4E700234B71DFE70220EAE710B545
:104AA00004460A4611F0800F20D101F00F0000EB00
:104AB000C0039B0003F514732344191D00EBC000D1
:104AC00004EB8000002380F8553202F00F020A70D8
:104AD00094F89434012B18D0012384F8943420687E
:104AE00002F0F4FC002084F8940410BD01F00F00E3
:104AF00000EBC0039B0010332344191D00EBC000E2
:104B000004EB800001234375DFE70220EDE710B5D9
:104B1000144601F00F0C0CEBCC01890001F5147167
:104B2000014404310CEBCC0E00EB8E0ECEF860226B
:104B3000CEF864320023CEF868328EF855328EF803
:104B400054C28279012A04D0006802F0A5FD002039
:104B500010BDCEF87042F7E701F00F0101EBC10183
:104B600000EB8101D1F86802704710B5144601F0DE
:104B70000F0C0CEBCC0189001031014404310CEB1B
:104B8000CC0E00EB8E0ECEF82020CEF82430002381
:104B9000CEF8283001238EF815308EF814C08279B3
:104BA0009A4204D0006802F077FD002010BDCEF8D4
:104BB0003040F7E738B501F00F050279AA4238D343
:104BC00004460B4611F0800F1FD101EBC101890093
:104BD00001F514710144043103EBC30300EB8303BB
:104BE000002283F8552201238B700D7094F89434C1
:104BF000012B20D0012384F89434206802F09EFE1B
:104C000085B1002084F8940438BD05EBC501890006
:104C100010310144043105EBC50300EB830301228D
:104C20005A75E0E704F29C42A179206802F084FF03
:104C3000E7E70120E8E70220E6E701F00F03027949
:104C40009A4230D310B5044611F0800F1ED103EB09
:104C5000C301890001F514710144043103EBC3025F
:104C600000EB8202002082F8550200228A700B704D
:104C700094F89434012B18D0012384F894342068DC
:104C800002F089FE002084F8940410BD03EBC301F8
:104C9000890010310144043103EBC30200EB8202AE
:104CA00001205075E1E7012070470220EDE708B5CB
:104CB00011F0800F0CD101F00F0101EBC10189004F
:104CC00001F5147101440431006802F06FFC08BD65
:104CD00001F00F0101EBC1018900103101440431E1
:104CE000F2E72DE9F04F83B004460568284602F04C
:104CF000DDFE10B103B0BDE8F08F0646206802F07B
:104D0000A4FE0028F6D005F50067BB68C3F30D23A9
:104D1000C4F8D434206802F098FE10F0020F04D0DA
:104D20002268536903F002035361206802F08DFE8C
:104D300010F0100F13D02268936923F010039361D1
:104D4000D5F8208008F00F09C8F34343022B4BD05D
:104D5000062B6FD02268936943F01003936120689B
:104D600002F073FE10F4002F76D1206802F06DFE81
:104D700010F4802F40F0E080206802F066FE0028EA
:104D8000C0F26181206802F060FE10F4006F09D06B
:104D9000BB6813F0010F40F06E812268536903F481
:104DA00000635361206802F050FE10F4805F40F011
:104DB0006681206802F049FE10F4005F40F0B38184
:104DC000206802F042FE10F0080F40F0C481206815
:104DD00002F03BFE10F0800F00F0D781AB6923F0AA
:104DE0008003AB610126C0E147F6F07318EA030FB8
:104DF000B0D04FEA181B4FEAC903019309EBC90A67
:104E000004EB8A0AC8F30A12DAF86012284602F0A4
:104E10006BFDCBF30A0BDAF860325B44CAF8603200
:104E2000019B4B4404EB8303D3F868325B44CAF81C
:104E300068328FE7082204F29C41284602F054FDB4
:104E4000C8F30A1809EBC90204EB8202D2F86832EF
:104E50004344C2F868327DE7206802F0FAFD8046DC
:104E6000B14635E005EB49130122C3F8082B49464A
:104E70002046FFF711FD3CE005EB49130822C3F87B
:104E8000082B49462046FFF789FD35E009EBC903A9
:104E900004EB830393F85732012B41D005EB491300
:104EA0000222C3F8082B1AF0200F04D005EB491397
:104EB0002022C3F8082B1AF4005F05D005EB491334
:104EC0004FF40052C3F8082B09F101094FEA5808C2
:104ED000B8F1000F3FF449AF18F0010FF4D05FFABA
:104EE00089FB5946206802F0C4FD824610F0010F8C
:104EF000B8D11AF0080FBFD11AF0100F04D005EB8B
:104F000049131022C3F8082B1AF0020FCBD06B699B
:104F100013F0800FBAD07B6843F480637B60B5E701
:104F200009EBC90304EB8303002283F85722594697
:104F3000204607F0A1FCB1E7206802F092FD804610
:104F4000B14625E05946204607F052FC1AF0080FFA
:104F500004D005EB49130822C3F808291AF0100FF2
:104F600004D005EB49131022C3F808291AF0400FAA
:104F700004D005EB49134022C3F808291AF0020FA8
:104F800040D11AF0800F59D109F101094FEA5808B0
:104F9000B8F1000F3FF4F0AE18F0010FF4D05FFA53
:104FA00089FB5946206802F06DFD824610F0010F22
:104FB000CCD009F00F03012101FA03F27B6B23EA45
:104FC00002037B6305EB4913C3F80819A3798B42ED
:104FD000B8D109EBC90304EB8303D9691A6A0A44FF
:104FE0001A62B9F1000FADD109EBC90304EB8303D9
:104FF0005B6A002BA6D104F29C420121206802F0DA
:105000009BFD9FE74946284602F0E6F809EBC903F5
:1050100004EB8303DB7D012B05D005EB4913022252
:10502000C3F80829ADE709EBC90304EB83030022A9
:10503000DA755946204607F025FCEEE7494620463A
:10504000FFF71EFBA0E77B6823F001037B6094F869
:10505000CC34012B08D0204607F008FC22685369A5
:1050600003F0004353618DE6002184F8CC14204600
:1050700000F03EF9F2E7204607F0E0FB8DE67B68A2
:1050800023F001037B601021206802F0A5F81AE0EC
:1050900005EB46134FF67F31C3F80819D3F8002902
:1050A00022F40012C3F80029C3F8081BD3F8002B20
:1050B00022F40012C3F8002BD3F8002B42F0006258
:1050C000C3F8002B01362379B342E1D8FB6943F0E2
:1050D0000113FB61E37BDBB1D7F8843043F00B03B2
:1050E000C7F884307B6C43F00B037B64D5F8003841
:1050F00023F4FE63C5F8003804F29C42A1792068CD
:1051000002F01AFD2268536903F48053536150E69C
:105110007B6943F4005343F02B037B613B6943F00D
:105120000B033B61E2E7206802F0F5FC206802F027
:105130006DF9E071266800F0DBFB0146E27930464C
:1051400001F0CCFF204607F064FB2268536903F4AA
:105150000053536134E6204607F055FB226853693B
:1051600003F00803536132E601362379B3420CD9C8
:1051700006EBC60304EB830393F85732012BF3D1FC
:10518000F1B22046FFF793FDEEE7206802F05DFCE8
:1051900010F4801F25D1206802F057FC10F4001F86
:1051A00058D0012326E001362379B3421BD905EB01
:1051B0004613D3F8002906EBC60304EB83031B7EDA
:1051C000012BF0D1002AEEDA06EBC60304EB8303D1
:1051D0000122DA7566F07F01C9B22046FFF767FD4C
:1051E000E1E70126E0E72268536903F48013536185
:1051F000D1E7013322799A4227D905EB4312D2F83D
:10520000001B03EBC30204EB820292F85822012A2E
:10521000EFD10029EDDAD4F8D42482EA114212F059
:10522000010FE6D103EBC30204EB8202012182F8F5
:105230005712AA6942F08002AA616A6912F0800FCF
:10524000D7D17B6843F400737B602268536903F411
:1052500000135361206802F0F8FB10F0804F10D16A
:10526000206802F0F2FB10F0040F3FF443AD236816
:105270005D6815F0040F0DD1226853682B4353600D
:1052800038E5204607F004FB2268536903F08043A9
:105290005361E5E7204607F001FBEDE710B4046831
:1052A000606A31B940EA0240A06200205DF8044B18
:1052B00070478C46A36A00EB1340002308E003F11B
:1052C000400104EB8101496800EB11400133DBB27E
:1052D0000CF1FF318B42F2D340EA02400CF13F0166
:1052E00004EB81014860E0E70368596200207047E1
:1052F00070470000002800F0E08170B582B00446DD
:10530000036813F0010F3BD09F4B9B6803F00C0325
:10531000042B2CD09C4B9B6803F00C03082B21D052
:105320006368B3F5803F4FD0B3F5A02F52D0964BB2
:105330001A6822F480321A601A6822F480221A60F5
:105340006368002B50D0FDF7F1FA05468E4B1B68C1
:1053500013F4003F14D1FDF7E9FA401B6428F5D996
:105360000320B1E1884B5B6813F4800FD8D0864BE3
:105370001B6813F4003F03D06368002B00F09F818B
:10538000236813F0020F54D07F4B9B6813F00C0F6F
:105390003ED07D4B9B6803F00C03082B33D0E368B1
:1053A000002B68D0794B01221A60FDF7BFFA054641
:1053B000754B1B6813F0020F54D1FDF7B7FA401B71
:1053C0000228F5D903207FE16F4A136843F4803344
:1053D0001360B5E76C4B1A6842F480221A601A68B1
:1053E00042F480321A60ABE7FDF7A0FA0546664B3F
:1053F0001B6813F4003FC3D0FDF798FA401B6428E4
:10540000F5D9032060E1604B5B6813F4800FC6D1CF
:105410005D4B1B6813F0020F03D0E368012B40F0D3
:105420005081594A136823F0F803216943EAC10304
:105430001360236813F0080F42D063696BB3534BBA
:105440000122C3F8802EFDF771FA05464E4B5B6FC3
:1054500013F0020F34D1FDF769FA401B0228F5D989
:10546000032031E1484A136823F0F803216943EA35
:10547000C1031360DDE7454B00221A60FDF756FAC1
:105480000546414B1B6813F0020FD2D0FDF74EFAD0
:10549000401B0228F5D9032016E13C4B0022C3F83B
:1054A000802EFDF743FA0546374B5B6F13F0020F72
:1054B00006D0FDF73BFA401B0228F5D9032003E193
:1054C000236813F0040F77D02F4B1B6C13F0805F11
:1054D00033D1002301932C4B1A6C42F080521A6492
:1054E0001B6C03F080530193019B0125284B1B6823
:1054F00013F4807F23D0A368012B34D0052B38D040
:10550000214B1A6F22F001021A671A6F22F004026F
:105510001A67A368002B3DD0FDF708FA06461A4B20
:105520001B6F13F0020F46D1FDF700FA801B41F20A
:1055300088339842F3D90320C6E00025D6E7144A01
:10554000136843F480731360FDF7F0F90646104BBF
:105550001B6813F4807FCED1FDF7E8F9801B022889
:10556000F5D90320B0E0084A136F43F00103136735
:10557000CFE7054B1A6F42F004021A671A6F42F028
:1055800001021A67C5E700BF003802400000474229
:1055900000700040FDF7CAF90646524B1B6F13F02E
:1055A000020F08D0FDF7C2F9801B41F28833984200
:1055B000F3D9032088E0EDB9A369002B00F08380C4
:1055C000484A926802F00C02082A51D0022B17D0E8
:1055D000454B00221A66FDF7A9F90446414B1B68AA
:1055E00013F0007F42D0FDF7A1F9001B0228F5D986
:1055F000032069E03B4A136C23F080531364DBE71C
:10560000394B00221A66FDF791F90546354B1B68A8
:1056100013F0007F06D0FDF789F9401B0228F5D969
:10562000032051E0E369226A1343626A43EA82136A
:10563000A26A5208013A43EA0243E26A43EA026379
:10564000284A5360284B01221A66FDF76FF9044679
:10565000244B1B6813F0007F06D1FDF767F9001B90
:105660000228F5D903202FE000202DE000202BE0B8
:10567000012B2BD01B4B5B6803F48001E269914244
:1056800026D103F03F02216A8A4223D1616A47F69C
:10569000C0721A40B2EB811F1ED103F44031A26ADE
:1056A0005208013AB1EB024F18D103F07063E26A7D
:1056B000B3EB026F14D1002006E0012070470120F7
:1056C00002E0012000E0002002B070BD0120FBE7F5
:1056D0000120F9E70120F7E70120F5E70120F3E7D2
:1056E0000120F1E7003802400000474208B5254B91
:1056F0009B6803F00C03042B3FD0082B3FD1214BB8
:105700005A6802F03F025B6813F4800F12D01D4B01
:105710005968C1F388111C480023A1FB0001FBF765
:1057200039FA184B5B68C3F3014301335B00B0FBEC
:10573000F3F025E0134B5968C1F3881C4FEA4C1174
:10574000B1EB0C006EEB0E0E4FEA8E1343EA906342
:105750008101091A63EB0E03DB0043EA5173C900B0
:1057600011EB0C0C43F10003990200234FEA8C204B
:1057700041EA9C51FBF70EFAD3E7034800E00348E7
:1057800008BD00BF00380240001BB7000024F40031
:10579000002800F09B8070B50D4604464F4B1B68F7
:1057A00003F007038B4208D2CBB24C4A1370136844
:1057B00003F007038B4240F08B80236813F0020F45
:1057C00017D013F0040F04D0454A936843F4E05314
:1057D0009360236813F0080F04D0414A936843F4A0
:1057E000604393603E4A936823F0F003A1680B4343
:1057F0009360236813F0010F32D06368012B21D02E
:105800009A1E012A25D9364A126812F0020F61D079
:1058100033498A6822F0030213438B60FDF786F850
:1058200006462F4B9B6803F00C036268B3EB820FB4
:1058300016D0FDF77BF8801B41F288339842F0D9EF
:10584000032042E0264A126812F4003FE0D1012012
:105850003BE0234A126812F0007FD9D1012034E0E6
:105860001E4B1B6803F00703AB4207D9EAB21B4B80
:105870001A701B6803F00703AB422DD1236813F0A5
:10588000040F06D0164A936823F4E053E1680B43F3
:105890009360236813F0080F07D0114A936823F42C
:1058A0006043216943EAC1039360FFF71FFF0C4B7C
:1058B0009B68C3F303130B4AD35CD8400A4B1860B0
:1058C0000A4B186806F07CF8002070BD0120704774
:1058D0000120FAE70120F8E70120F6E7003C02404A
:1058E00000380240D4260108E408002054080020B3
:1058F000014B1868704700BFE408002008B5FFF7A7
:10590000F7FF044B9B68C3F38223034AD35CD84060
:1059100008BD00BF00380240E426010808B5FFF7C3
:10592000E7FF044B9B68C3F34233034AD35CD84080
:1059300008BD00BF00380240E42601080F230360C1
:105940000B4B9A6802F0030242609A6802F0F00280
:1059500082609A6802F4E052C2609B68DB0803F43C
:10596000E0530361034B1B6803F007030B607047B0
:1059700000380240003C024030B583B00446036862
:1059800013F0050F06D1236813F0020F2ED100206B
:1059900003B030BD4A4B00229A66FCF7C7FF0546AC
:1059A000484B1B6813F0006F06D0FCF7BFFF431B8A
:1059B000022BF5D90320EBE76268A3681B0743EAD3
:1059C0008213404AC2F884303D4B01229A66FCF7AC
:1059D000ADFF05463B4B1B6813F0006FD3D1FCF7BE
:1059E000A5FF431B022BF5D90320D1E70023019328
:1059F000344B1A6C42F080521A641B6C03F08053D3
:105A00000193019B304A136843F480731360FCF7E1
:105A10008DFF05462C4B1B6813F4807F06D1FCF7E5
:105A200085FF431B022BF5D90320B1E7254B1B6FE4
:105A300013F4407314D0E26802F440729A420FD01B
:105A4000204B1A6F22F440721D490120C1F8400E0C
:105A50000020C1F8400E1A671B6F13F0010F13D11D
:105A6000E36803F44072B2F5407F1ED0154A936894
:105A700023F4F813936013490B6FE268C2F30B022F
:105A800013430B67002083E7FCF750FF05460D4BDF
:105A90001B6F13F0020FE3D1FCF748FF401B41F2EC
:105AA00088339842F3D9032072E706498A6822F4C2
:105AB000F81223F0704323F4407313438B60DAE74A
:105AC00000004742003802400070004098B110B515
:105AD000044643795BB1022363712268136843F083
:105AE00004031360012363710020A06010BD0371E3
:105AF00005F0E2FDEFE701207047000038B50446ED
:105B000003680A4ADA60FCF711FF05462368DB6880
